{
  "contracts/Votations.sol": {
    "Votations": {
      "abi": [
        {
          "anonymous": false,
          "inputs": [
            {
              "indexed": true,
              "internalType": "uint256",
              "name": "votationId",
              "type": "uint256"
            }
          ],
          "name": "VotationEvent",
          "type": "event"
        },
        {
          "inputs": [
            {
              "internalType": "address[]",
              "name": "_candidates",
              "type": "address[]"
            },
            {
              "internalType": "uint32",
              "name": "_rounds",
              "type": "uint32"
            }
          ],
          "name": "createVotations",
          "outputs": [
            {
              "internalType": "uint256",
              "name": "",
              "type": "uint256"
            }
          ],
          "stateMutability": "nonpayable",
          "type": "function"
        },
        {
          "inputs": [
            {
              "internalType": "uint256",
              "name": "_votationId",
              "type": "uint256"
            }
          ],
          "name": "getVotation",
          "outputs": [
            {
              "internalType": "uint32",
              "name": "",
              "type": "uint32"
            },
            {
              "internalType": "uint32",
              "name": "",
              "type": "uint32"
            }
          ],
          "stateMutability": "view",
          "type": "function"
        },
        {
          "inputs": [
            {
              "internalType": "address",
              "name": "_user",
              "type": "address"
            }
          ],
          "name": "isRegisterUser",
          "outputs": [
            {
              "internalType": "bool",
              "name": "",
              "type": "bool"
            }
          ],
          "stateMutability": "view",
          "type": "function"
        },
        {
          "inputs": [],
          "name": "register",
          "outputs": [],
          "stateMutability": "nonpayable",
          "type": "function"
        }
      ],
      "devdoc": {
        "kind": "dev",
        "methods": {},
        "version": 1
      },
      "evm": {
        "bytecode": {
          "linkReferences": {},
          "object": "608060405234801561001057600080fd5b506105c8806100206000396000f3fe608060405234801561001057600080fd5b506004361061004c5760003560e01c80631aa3a0081461005157806339c4757b1461005b578063b86850bc1461009c578063e09648af146100bd575b600080fd5b6100596100ed565b005b6100876100693660046103e1565b6001600160a01b031660009081526020819052604090205460ff1690565b60405190151581526020015b60405180910390f35b6100af6100aa366004610403565b61016b565b604051908152602001610093565b6100d06100cb3660046104e1565b610321565b6040805163ffffffff938416815292909116602083015201610093565b3360009081526020819052604090205460ff1615156001141561014f5760405162461bcd60e51b81526020600482015260156024820152742ab9b2b91030b63932b0b23c903932b3b4b9ba32b960591b60448201526064015b60405180910390fd5b336000908152602081905260409020805460ff19166001179055565b3360009081526020819052604081205460ff1615156001146101c65760405162461bcd60e51b81526020600482015260146024820152732cb7ba9030b932903737ba103932b3b4b9ba32b960611b6044820152606401610146565b6040805180820190915260006020820181905263ffffffff841682525b84518163ffffffff16101561026657848163ffffffff168151811061020a5761020a610566565b602090810291909101810151600354600090815260018352604080822063ffffffff861683529093529190912080546001600160a01b0319166001600160a01b039092169190911790558061025e8161052c565b9150506101e3565b506003805490600061027783610511565b91905055508060046000600160035461029091906104fa565b815260208082019290925260400160002082518154939092015163ffffffff9081166401000000000267ffffffffffffffff199094169216919091179190911790556003546102e1906001906104fa565b6040517fdfa6994ab96c499b82738cc9db0ed00ddde6f43d65995e3887721f2f4a3fc1bc90600090a2600160035461031991906104fa565b949350505050565b60008082600354116103755760405162461bcd60e51b815260206004820152601760248201527f766f746174696f6e20646f6573206e6f742065786974730000000000000000006044820152606401610146565b505060009081526004602090815260409182902082518084019093525463ffffffff808216808552640100000000909204169290910182905291565b80356001600160a01b03811681146103c857600080fd5b919050565b803563ffffffff811681146103c857600080fd5b6000602082840312156103f357600080fd5b6103fc826103b1565b9392505050565b6000806040838503121561041657600080fd5b823567ffffffffffffffff8082111561042e57600080fd5b818501915085601f83011261044257600080fd5b81356020828211156104565761045661057c565b8160051b604051601f19603f8301168101818110868211171561047b5761047b61057c565b604052838152828101945085830182870184018b101561049a57600080fd5b600096505b848710156104c4576104b0816103b1565b86526001969096019594830194830161049f565b5096506104d490508782016103cd565b9450505050509250929050565b6000602082840312156104f357600080fd5b5035919050565b60008282101561050c5761050c610550565b500390565b600060001982141561052557610525610550565b5060010190565b600063ffffffff8083168181141561054657610546610550565b6001019392505050565b634e487b7160e01b600052601160045260246000fd5b634e487b7160e01b600052603260045260246000fd5b634e487b7160e01b600052604160045260246000fdfea26469706673582212203f50c36561a5eac6b11a9fc0a0acee817b7625fa527c78cd46b0e1d58c1ab06b64736f6c63430008070033",
          "opcodes": "PUSH1 0x80 PUSH1 0x40 MSTORE CALLVALUE DUP1 ISZERO PUSH2 0x10 JUMPI PUSH1 0x0 DUP1 REVERT JUMPDEST POP PUSH2 0x5C8 DUP1 PUSH2 0x20 PUSH1 0x0 CODECOPY PUSH1 0x0 RETURN INVALID PUSH1 0x80 PUSH1 0x40 MSTORE CALLVALUE DUP1 ISZERO PUSH2 0x10 JUMPI PUSH1 0x0 DUP1 REVERT JUMPDEST POP PUSH1 0x4 CALLDATASIZE LT PUSH2 0x4C JUMPI PUSH1 0x0 CALLDATALOAD PUSH1 0xE0 SHR DUP1 PUSH4 0x1AA3A008 EQ PUSH2 0x51 JUMPI DUP1 PUSH4 0x39C4757B EQ PUSH2 0x5B JUMPI DUP1 PUSH4 0xB86850BC EQ PUSH2 0x9C JUMPI DUP1 PUSH4 0xE09648AF EQ PUSH2 0xBD JUMPI JUMPDEST PUSH1 0x0 DUP1 REVERT JUMPDEST PUSH2 0x59 PUSH2 0xED JUMP JUMPDEST STOP JUMPDEST PUSH2 0x87 PUSH2 0x69 CALLDATASIZE PUSH1 0x4 PUSH2 0x3E1 JUMP JUMPDEST PUSH1 0x1 PUSH1 0x1 PUSH1 0xA0 SHL SUB AND PUSH1 0x0 SWAP1 DUP2 MSTORE PUSH1 0x20 DUP2 SWAP1 MSTORE PUSH1 0x40 SWAP1 KECCAK256 SLOAD PUSH1 0xFF AND SWAP1 JUMP JUMPDEST PUSH1 0x40 MLOAD SWAP1 ISZERO ISZERO DUP2 MSTORE PUSH1 0x20 ADD JUMPDEST PUSH1 0x40 MLOAD DUP1 SWAP2 SUB SWAP1 RETURN JUMPDEST PUSH2 0xAF PUSH2 0xAA CALLDATASIZE PUSH1 0x4 PUSH2 0x403 JUMP JUMPDEST PUSH2 0x16B JUMP JUMPDEST PUSH1 0x40 MLOAD SWAP1 DUP2 MSTORE PUSH1 0x20 ADD PUSH2 0x93 JUMP JUMPDEST PUSH2 0xD0 PUSH2 0xCB CALLDATASIZE PUSH1 0x4 PUSH2 0x4E1 JUMP JUMPDEST PUSH2 0x321 JUMP JUMPDEST PUSH1 0x40 DUP1 MLOAD PUSH4 0xFFFFFFFF SWAP4 DUP5 AND DUP2 MSTORE SWAP3 SWAP1 SWAP2 AND PUSH1 0x20 DUP4 ADD MSTORE ADD PUSH2 0x93 JUMP JUMPDEST CALLER PUSH1 0x0 SWAP1 DUP2 MSTORE PUSH1 0x20 DUP2 SWAP1 MSTORE PUSH1 0x40 SWAP1 KECCAK256 SLOAD PUSH1 0xFF AND ISZERO ISZERO PUSH1 0x1 EQ ISZERO PUSH2 0x14F JUMPI PUSH1 0x40 MLOAD PUSH3 0x461BCD PUSH1 0xE5 SHL DUP2 MSTORE PUSH1 0x20 PUSH1 0x4 DUP3 ADD MSTORE PUSH1 0x15 PUSH1 0x24 DUP3 ADD MSTORE PUSH21 0x2AB9B2B91030B63932B0B23C903932B3B4B9BA32B9 PUSH1 0x59 SHL PUSH1 0x44 DUP3 ADD MSTORE PUSH1 0x64 ADD JUMPDEST PUSH1 0x40 MLOAD DUP1 SWAP2 SUB SWAP1 REVERT JUMPDEST CALLER PUSH1 0x0 SWAP1 DUP2 MSTORE PUSH1 0x20 DUP2 SWAP1 MSTORE PUSH1 0x40 SWAP1 KECCAK256 DUP1 SLOAD PUSH1 0xFF NOT AND PUSH1 0x1 OR SWAP1 SSTORE JUMP JUMPDEST CALLER PUSH1 0x0 SWAP1 DUP2 MSTORE PUSH1 0x20 DUP2 SWAP1 MSTORE PUSH1 0x40 DUP2 KECCAK256 SLOAD PUSH1 0xFF AND ISZERO ISZERO PUSH1 0x1 EQ PUSH2 0x1C6 JUMPI PUSH1 0x40 MLOAD PUSH3 0x461BCD PUSH1 0xE5 SHL DUP2 MSTORE PUSH1 0x20 PUSH1 0x4 DUP3 ADD MSTORE PUSH1 0x14 PUSH1 0x24 DUP3 ADD MSTORE PUSH20 0x2CB7BA9030B932903737BA103932B3B4B9BA32B9 PUSH1 0x61 SHL PUSH1 0x44 DUP3 ADD MSTORE PUSH1 0x64 ADD PUSH2 0x146 JUMP JUMPDEST PUSH1 0x40 DUP1 MLOAD DUP1 DUP3 ADD SWAP1 SWAP2 MSTORE PUSH1 0x0 PUSH1 0x20 DUP3 ADD DUP2 SWAP1 MSTORE PUSH4 0xFFFFFFFF DUP5 AND DUP3 MSTORE JUMPDEST DUP5 MLOAD DUP2 PUSH4 0xFFFFFFFF AND LT ISZERO PUSH2 0x266 JUMPI DUP5 DUP2 PUSH4 0xFFFFFFFF AND DUP2 MLOAD DUP2 LT PUSH2 0x20A JUMPI PUSH2 0x20A PUSH2 0x566 JUMP JUMPDEST PUSH1 0x20 SWAP1 DUP2 MUL SWAP2 SWAP1 SWAP2 ADD DUP2 ADD MLOAD PUSH1 0x3 SLOAD PUSH1 0x0 SWAP1 DUP2 MSTORE PUSH1 0x1 DUP4 MSTORE PUSH1 0x40 DUP1 DUP3 KECCAK256 PUSH4 0xFFFFFFFF DUP7 AND DUP4 MSTORE SWAP1 SWAP4 MSTORE SWAP2 SWAP1 SWAP2 KECCAK256 DUP1 SLOAD PUSH1 0x1 PUSH1 0x1 PUSH1 0xA0 SHL SUB NOT AND PUSH1 0x1 PUSH1 0x1 PUSH1 0xA0 SHL SUB SWAP1 SWAP3 AND SWAP2 SWAP1 SWAP2 OR SWAP1 SSTORE DUP1 PUSH2 0x25E DUP2 PUSH2 0x52C JUMP JUMPDEST SWAP2 POP POP PUSH2 0x1E3 JUMP JUMPDEST POP PUSH1 0x3 DUP1 SLOAD SWAP1 PUSH1 0x0 PUSH2 0x277 DUP4 PUSH2 0x511 JUMP JUMPDEST SWAP2 SWAP1 POP SSTORE POP DUP1 PUSH1 0x4 PUSH1 0x0 PUSH1 0x1 PUSH1 0x3 SLOAD PUSH2 0x290 SWAP2 SWAP1 PUSH2 0x4FA JUMP JUMPDEST DUP2 MSTORE PUSH1 0x20 DUP1 DUP3 ADD SWAP3 SWAP1 SWAP3 MSTORE PUSH1 0x40 ADD PUSH1 0x0 KECCAK256 DUP3 MLOAD DUP2 SLOAD SWAP4 SWAP1 SWAP3 ADD MLOAD PUSH4 0xFFFFFFFF SWAP1 DUP2 AND PUSH5 0x100000000 MUL PUSH8 0xFFFFFFFFFFFFFFFF NOT SWAP1 SWAP5 AND SWAP3 AND SWAP2 SWAP1 SWAP2 OR SWAP2 SWAP1 SWAP2 OR SWAP1 SSTORE PUSH1 0x3 SLOAD PUSH2 0x2E1 SWAP1 PUSH1 0x1 SWAP1 PUSH2 0x4FA JUMP JUMPDEST PUSH1 0x40 MLOAD PUSH32 0xDFA6994AB96C499B82738CC9DB0ED00DDDE6F43D65995E3887721F2F4A3FC1BC SWAP1 PUSH1 0x0 SWAP1 LOG2 PUSH1 0x1 PUSH1 0x3 SLOAD PUSH2 0x319 SWAP2 SWAP1 PUSH2 0x4FA JUMP JUMPDEST SWAP5 SWAP4 POP POP POP POP JUMP JUMPDEST PUSH1 0x0 DUP1 DUP3 PUSH1 0x3 SLOAD GT PUSH2 0x375 JUMPI PUSH1 0x40 MLOAD PUSH3 0x461BCD PUSH1 0xE5 SHL DUP2 MSTORE PUSH1 0x20 PUSH1 0x4 DUP3 ADD MSTORE PUSH1 0x17 PUSH1 0x24 DUP3 ADD MSTORE PUSH32 0x766F746174696F6E20646F6573206E6F74206578697473000000000000000000 PUSH1 0x44 DUP3 ADD MSTORE PUSH1 0x64 ADD PUSH2 0x146 JUMP JUMPDEST POP POP PUSH1 0x0 SWAP1 DUP2 MSTORE PUSH1 0x4 PUSH1 0x20 SWAP1 DUP2 MSTORE PUSH1 0x40 SWAP2 DUP3 SWAP1 KECCAK256 DUP3 MLOAD DUP1 DUP5 ADD SWAP1 SWAP4 MSTORE SLOAD PUSH4 0xFFFFFFFF DUP1 DUP3 AND DUP1 DUP6 MSTORE PUSH5 0x100000000 SWAP1 SWAP3 DIV AND SWAP3 SWAP1 SWAP2 ADD DUP3 SWAP1 MSTORE SWAP2 JUMP JUMPDEST DUP1 CALLDATALOAD PUSH1 0x1 PUSH1 0x1 PUSH1 0xA0 SHL SUB DUP2 AND DUP2 EQ PUSH2 0x3C8 JUMPI PUSH1 0x0 DUP1 REVERT JUMPDEST SWAP2 SWAP1 POP JUMP JUMPDEST DUP1 CALLDATALOAD PUSH4 0xFFFFFFFF DUP2 AND DUP2 EQ PUSH2 0x3C8 JUMPI PUSH1 0x0 DUP1 REVERT JUMPDEST PUSH1 0x0 PUSH1 0x20 DUP3 DUP5 SUB SLT ISZERO PUSH2 0x3F3 JUMPI PUSH1 0x0 DUP1 REVERT JUMPDEST PUSH2 0x3FC DUP3 PUSH2 0x3B1 JUMP JUMPDEST SWAP4 SWAP3 POP POP POP JUMP JUMPDEST PUSH1 0x0 DUP1 PUSH1 0x40 DUP4 DUP6 SUB SLT ISZERO PUSH2 0x416 JUMPI PUSH1 0x0 DUP1 REVERT JUMPDEST DUP3 CALLDATALOAD PUSH8 0xFFFFFFFFFFFFFFFF DUP1 DUP3 GT ISZERO PUSH2 0x42E JUMPI PUSH1 0x0 DUP1 REVERT JUMPDEST DUP2 DUP6 ADD SWAP2 POP DUP6 PUSH1 0x1F DUP4 ADD SLT PUSH2 0x442 JUMPI PUSH1 0x0 DUP1 REVERT JUMPDEST DUP2 CALLDATALOAD PUSH1 0x20 DUP3 DUP3 GT ISZERO PUSH2 0x456 JUMPI PUSH2 0x456 PUSH2 0x57C JUMP JUMPDEST DUP2 PUSH1 0x5 SHL PUSH1 0x40 MLOAD PUSH1 0x1F NOT PUSH1 0x3F DUP4 ADD AND DUP2 ADD DUP2 DUP2 LT DUP7 DUP3 GT OR ISZERO PUSH2 0x47B JUMPI PUSH2 0x47B PUSH2 0x57C JUMP JUMPDEST PUSH1 0x40 MSTORE DUP4 DUP2 MSTORE DUP3 DUP2 ADD SWAP5 POP DUP6 DUP4 ADD DUP3 DUP8 ADD DUP5 ADD DUP12 LT ISZERO PUSH2 0x49A JUMPI PUSH1 0x0 DUP1 REVERT JUMPDEST PUSH1 0x0 SWAP7 POP JUMPDEST DUP5 DUP8 LT ISZERO PUSH2 0x4C4 JUMPI PUSH2 0x4B0 DUP2 PUSH2 0x3B1 JUMP JUMPDEST DUP7 MSTORE PUSH1 0x1 SWAP7 SWAP1 SWAP7 ADD SWAP6 SWAP5 DUP4 ADD SWAP5 DUP4 ADD PUSH2 0x49F JUMP JUMPDEST POP SWAP7 POP PUSH2 0x4D4 SWAP1 POP DUP8 DUP3 ADD PUSH2 0x3CD JUMP JUMPDEST SWAP5 POP POP POP POP POP SWAP3 POP SWAP3 SWAP1 POP JUMP JUMPDEST PUSH1 0x0 PUSH1 0x20 DUP3 DUP5 SUB SLT ISZERO PUSH2 0x4F3 JUMPI PUSH1 0x0 DUP1 REVERT JUMPDEST POP CALLDATALOAD SWAP2 SWAP1 POP JUMP JUMPDEST PUSH1 0x0 DUP3 DUP3 LT ISZERO PUSH2 0x50C JUMPI PUSH2 0x50C PUSH2 0x550 JUMP JUMPDEST POP SUB SWAP1 JUMP JUMPDEST PUSH1 0x0 PUSH1 0x0 NOT DUP3 EQ ISZERO PUSH2 0x525 JUMPI PUSH2 0x525 PUSH2 0x550 JUMP JUMPDEST POP PUSH1 0x1 ADD SWAP1 JUMP JUMPDEST PUSH1 0x0 PUSH4 0xFFFFFFFF DUP1 DUP4 AND DUP2 DUP2 EQ ISZERO PUSH2 0x546 JUMPI PUSH2 0x546 PUSH2 0x550 JUMP JUMPDEST PUSH1 0x1 ADD SWAP4 SWAP3 POP POP POP JUMP JUMPDEST PUSH4 0x4E487B71 PUSH1 0xE0 SHL PUSH1 0x0 MSTORE PUSH1 0x11 PUSH1 0x4 MSTORE PUSH1 0x24 PUSH1 0x0 REVERT JUMPDEST PUSH4 0x4E487B71 PUSH1 0xE0 SHL PUSH1 0x0 MSTORE PUSH1 0x32 PUSH1 0x4 MSTORE PUSH1 0x24 PUSH1 0x0 REVERT JUMPDEST PUSH4 0x4E487B71 PUSH1 0xE0 SHL PUSH1 0x0 MSTORE PUSH1 0x41 PUSH1 0x4 MSTORE PUSH1 0x24 PUSH1 0x0 REVERT INVALID LOG2 PUSH5 0x6970667358 0x22 SLT KECCAK256 EXTCODEHASH POP 0xC3 PUSH6 0x61A5EAC6B11A SWAP16 0xC0 LOG0 0xAC 0xEE DUP2 PUSH28 0x7625FA527C78CD46B0E1D58C1AB06B64736F6C634300080700330000 "
        },
        "gasEstimates": {
          "creation": {
            "codeDepositCost": "296000",
            "executionCost": "337",
            "totalCost": "296337"
          },
          "external": {
            "createVotations(address[],uint32)": "infinite",
            "getVotation(uint256)": "4764",
            "isRegisterUser(address)": "2541",
            "register()": "26626"
          }
        },
        "methodIdentifiers": {
          "createVotations(address[],uint32)": "b86850bc",
          "getVotation(uint256)": "e09648af",
          "isRegisterUser(address)": "39c4757b",
          "register()": "1aa3a008"
        }
      },
      "storageLayout": {
        "storage": [
          {
            "astId": 5,
            "contract": "contracts/Votations.sol:Votations",
            "label": "user",
            "offset": 0,
            "slot": "0",
            "type": "t_mapping(t_address,t_bool)"
          },
          {
            "astId": 11,
            "contract": "contracts/Votations.sol:Votations",
            "label": "candidates",
            "offset": 0,
            "slot": "1",
            "type": "t_mapping(t_uint256,t_mapping(t_uint32,t_address))"
          },
          {
            "astId": 15,
            "contract": "contracts/Votations.sol:Votations",
            "label": "votes",
            "offset": 0,
            "slot": "2",
            "type": "t_mapping(t_address,t_uint32)"
          },
          {
            "astId": 22,
            "contract": "contracts/Votations.sol:Votations",
            "label": "votationsQuantity",
            "offset": 0,
            "slot": "3",
            "type": "t_uint256"
          },
          {
            "astId": 27,
            "contract": "contracts/Votations.sol:Votations",
            "label": "votations",
            "offset": 0,
            "slot": "4",
            "type": "t_mapping(t_uint256,t_struct(Votation)20_storage)"
          }
        ],
        "types": {
          "t_address": {
            "encoding": "inplace",
            "label": "address",
            "numberOfBytes": "20"
          },
          "t_bool": {
            "encoding": "inplace",
            "label": "bool",
            "numberOfBytes": "1"
          },
          "t_mapping(t_address,t_bool)": {
            "encoding": "mapping",
            "key": "t_address",
            "label": "mapping(address => bool)",
            "numberOfBytes": "32",
            "value": "t_bool"
          },
          "t_mapping(t_address,t_uint32)": {
            "encoding": "mapping",
            "key": "t_address",
            "label": "mapping(address => uint32)",
            "numberOfBytes": "32",
            "value": "t_uint32"
          },
          "t_mapping(t_uint256,t_mapping(t_uint32,t_address))": {
            "encoding": "mapping",
            "key": "t_uint256",
            "label": "mapping(uint256 => mapping(uint32 => address))",
            "numberOfBytes": "32",
            "value": "t_mapping(t_uint32,t_address)"
          },
          "t_mapping(t_uint256,t_struct(Votation)20_storage)": {
            "encoding": "mapping",
            "key": "t_uint256",
            "label": "mapping(uint256 => struct Votations.Votation)",
            "numberOfBytes": "32",
            "value": "t_struct(Votation)20_storage"
          },
          "t_mapping(t_uint32,t_address)": {
            "encoding": "mapping",
            "key": "t_uint32",
            "label": "mapping(uint32 => address)",
            "numberOfBytes": "32",
            "value": "t_address"
          },
          "t_struct(Votation)20_storage": {
            "encoding": "inplace",
            "label": "struct Votations.Votation",
            "members": [
              {
                "astId": 17,
                "contract": "contracts/Votations.sol:Votations",
                "label": "rounds",
                "offset": 0,
                "slot": "0",
                "type": "t_uint32"
              },
              {
                "astId": 19,
                "contract": "contracts/Votations.sol:Votations",
                "label": "actualRounds",
                "offset": 4,
                "slot": "0",
                "type": "t_uint32"
              }
            ],
            "numberOfBytes": "32"
          },
          "t_uint256": {
            "encoding": "inplace",
            "label": "uint256",
            "numberOfBytes": "32"
          },
          "t_uint32": {
            "encoding": "inplace",
            "label": "uint32",
            "numberOfBytes": "4"
          }
        }
      },
      "userdoc": {
        "kind": "user",
        "methods": {},
        "version": 1
      }
    }
  }
}