{
  "_format": "hh-sol-artifact-1",
  "contractName": "Votations",
  "sourceName": "contracts/Votations.sol",
  "abi": [
    {
      "anonymous": false,
      "inputs": [
        {
          "indexed": true,
          "internalType": "uint256",
          "name": "votationId",
          "type": "uint256"
        },
        {
          "indexed": true,
          "internalType": "string",
          "name": "name",
          "type": "string"
        }
      ],
      "name": "CreateVotation",
      "type": "event"
    },
    {
      "anonymous": false,
      "inputs": [
        {
          "indexed": true,
          "internalType": "address",
          "name": "previousOwner",
          "type": "address"
        },
        {
          "indexed": true,
          "internalType": "address",
          "name": "newOwner",
          "type": "address"
        }
      ],
      "name": "OwnershipTransferred",
      "type": "event"
    },
    {
      "anonymous": false,
      "inputs": [
        {
          "indexed": true,
          "internalType": "address",
          "name": "user",
          "type": "address"
        }
      ],
      "name": "Register",
      "type": "event"
    },
    {
      "anonymous": false,
      "inputs": [
        {
          "indexed": true,
          "internalType": "uint256",
          "name": "votationId",
          "type": "uint256"
        },
        {
          "indexed": true,
          "internalType": "uint32",
          "name": "candidate",
          "type": "uint32"
        }
      ],
      "name": "Vote",
      "type": "event"
    },
    {
      "inputs": [
        {
          "internalType": "uint256",
          "name": "",
          "type": "uint256"
        },
        {
          "internalType": "uint32",
          "name": "",
          "type": "uint32"
        }
      ],
      "name": "candidates",
      "outputs": [
        {
          "internalType": "address",
          "name": "",
          "type": "address"
        }
      ],
      "stateMutability": "view",
      "type": "function"
    },
    {
      "inputs": [
        {
          "internalType": "string",
          "name": "_name",
          "type": "string"
        },
        {
          "internalType": "address[]",
          "name": "_candidates",
          "type": "address[]"
        },
        {
          "internalType": "uint32",
          "name": "_rounds",
          "type": "uint32"
        }
      ],
      "name": "createVotations",
      "outputs": [
        {
          "internalType": "uint256",
          "name": "",
          "type": "uint256"
        }
      ],
      "stateMutability": "nonpayable",
      "type": "function"
    },
    {
      "inputs": [
        {
          "internalType": "uint256",
          "name": "_votationId",
          "type": "uint256"
        }
      ],
      "name": "goToNextRound",
      "outputs": [],
      "stateMutability": "nonpayable",
      "type": "function"
    },
    {
      "inputs": [
        {
          "internalType": "address",
          "name": "_user",
          "type": "address"
        }
      ],
      "name": "isRegisterUser",
      "outputs": [
        {
          "internalType": "bool",
          "name": "",
          "type": "bool"
        }
      ],
      "stateMutability": "view",
      "type": "function"
    },
    {
      "inputs": [
        {
          "internalType": "uint256",
          "name": "_votationId",
          "type": "uint256"
        },
        {
          "internalType": "uint32",
          "name": "_candidate",
          "type": "uint32"
        }
      ],
      "name": "makeVote",
      "outputs": [],
      "stateMutability": "nonpayable",
      "type": "function"
    },
    {
      "inputs": [],
      "name": "owner",
      "outputs": [
        {
          "internalType": "address",
          "name": "",
          "type": "address"
        }
      ],
      "stateMutability": "view",
      "type": "function"
    },
    {
      "inputs": [],
      "name": "register",
      "outputs": [],
      "stateMutability": "nonpayable",
      "type": "function"
    },
    {
      "inputs": [],
      "name": "renounceOwnership",
      "outputs": [],
      "stateMutability": "nonpayable",
      "type": "function"
    },
    {
      "inputs": [
        {
          "internalType": "address",
          "name": "newOwner",
          "type": "address"
        }
      ],
      "name": "transferOwnership",
      "outputs": [],
      "stateMutability": "nonpayable",
      "type": "function"
    },
    {
      "inputs": [
        {
          "internalType": "uint256",
          "name": "",
          "type": "uint256"
        }
      ],
      "name": "votations",
      "outputs": [
        {
          "internalType": "string",
          "name": "name",
          "type": "string"
        },
        {
          "internalType": "uint32",
          "name": "rounds",
          "type": "uint32"
        },
        {
          "internalType": "uint32",
          "name": "actualRound",
          "type": "uint32"
        },
        {
          "internalType": "uint256",
          "name": "startTime",
          "type": "uint256"
        }
      ],
      "stateMutability": "view",
      "type": "function"
    },
    {
      "inputs": [
        {
          "internalType": "uint256",
          "name": "",
          "type": "uint256"
        },
        {
          "internalType": "uint32",
          "name": "",
          "type": "uint32"
        },
        {
          "internalType": "address",
          "name": "",
          "type": "address"
        }
      ],
      "name": "votes",
      "outputs": [
        {
          "internalType": "uint32",
          "name": "",
          "type": "uint32"
        }
      ],
      "stateMutability": "view",
      "type": "function"
    }
  ],
  "bytecode": "0x608060405262093a8060025534801561001757600080fd5b5061002133610026565b610076565b600080546001600160a01b038381166001600160a01b0319831681178455604051919092169283917f8be0079c531659141344cd1fd0a4f28419497f9722a3daafe3b4186f6b6457e09190a35050565b61111c806100856000396000f3fe608060405234801561001057600080fd5b50600436106100a95760003560e01c80636dbec6a9116100715780636dbec6a914610150578063715018a61461019c5780637ccc7eab146101a45780638da5cb5b146101f057806398b58e9b14610201578063f2fde38b1461021457600080fd5b80631aa3a008146100ae57806339c4757b146100b85780634e083d1f146100f957806360a2c4821461010c5780636523cfc91461012d575b600080fd5b6100b6610227565b005b6100e46100c6366004610d6f565b6001600160a01b031660009081526001602052604090205460ff1690565b60405190151581526020015b60405180910390f35b6100b6610107366004610e72565b6102cf565b61011f61011a366004610d91565b61068d565b6040519081526020016100f0565b61014061013b366004610e59565b6108c2565b6040516100f09493929190610eed565b61018761015e366004610e9e565b600460209081526000938452604080852082529284528284209052825290205463ffffffff1681565b60405163ffffffff90911681526020016100f0565b6100b661097f565b6101d86101b2366004610e72565b60036020908152600092835260408084209091529082529020546001600160a01b031681565b6040516001600160a01b0390911681526020016100f0565b6000546001600160a01b03166101d8565b6100b661020f366004610e59565b6109b5565b6100b6610222366004610d6f565b610b2e565b3360009081526001602081905260409091205460ff161515141561028a5760405162461bcd60e51b81526020600482015260156024820152742ab9b2b91030b63932b0b23c903932b3b4b9ba32b960591b60448201526064015b60405180910390fd5b336000818152600160208190526040808320805460ff1916909217909155517feeda149c76076b34d4b9d8896c2f7efc0d33d1c7b53ea3c5db490d64613f603a9190a2565b3360009081526001602081905260409091205460ff1615151461032b5760405162461bcd60e51b81526020600482015260146024820152732cb7ba9030b932903737ba103932b3b4b9ba32b960611b6044820152606401610281565b60028054600084815260066020526040902090910154839161034c91610fa3565b421061038e5760405162461bcd60e51b8152602060048201526011602482015270159bdd185d1a5bdb88199a5b9a5cda1959607a1b6044820152606401610281565b60008263ffffffff16116103e05760405162461bcd60e51b815260206004820152601960248201527843616e64696461746520646f6573206e6f742065786973742160381b6044820152606401610281565b600083815260036020908152604080832063ffffffff861684529091529020546001600160a01b03166104515760405162461bcd60e51b815260206004820152601960248201527843616e64696461746520646f6573206e6f742065786973742160381b6044820152606401610281565b600083815260036020908152604080832063ffffffff861684529091529020546001600160a01b03163314156104c95760405162461bcd60e51b815260206004820152601f60248201527f596f752063616e206e6f7420766f746520666f7220796f757273656c766521006044820152606401610281565b6000838152600660205260408082208151608081019092528054829082906104f09061102a565b80601f016020809104026020016040519081016040528092919081815260200182805461051c9061102a565b80156105695780601f1061053e57610100808354040283529160200191610569565b820191906000526020600020905b81548152906001019060200180831161054c57829003601f168201915b5050509183525050600182015463ffffffff8082166020808501919091526401000000009092048116604080850191909152600290940154606090930192909252600088815260048252838120858501518416825282528381203382529091529190912054919250161561061f5760405162461bcd60e51b815260206004820152601760248201527f596f75206f6e6c792063616e20766f7465206f6e6365210000000000000000006044820152606401610281565b60008481526004602090815260408083208482015163ffffffff9081168552908352818420338552909252808320805463ffffffff1916928716928317905551909186917fb68c1f1c320402b2b401cc023c8972ae323e92832ac5c36b5f0bea6752d15fd49190a350505050565b600080546001600160a01b031633146106b85760405162461bcd60e51b815260040161028190610f3d565b60068351106107095760405162461bcd60e51b815260206004820152601d60248201527f4d617820352063616e646964617465732070657220766f746174696f6e0000006044820152606401610281565b60408051608081018252600091810182905285815263ffffffff84166020820152426060820152905b84518163ffffffff1610156107cb57848163ffffffff1681518110610759576107596110ba565b602002602001015160036000600554815260200190815260200160002060008360016107859190610fbb565b63ffffffff168152602081019190915260400160002080546001600160a01b0319166001600160a01b0392909216919091179055806107c381611080565b915050610732565b50600580549060006107dc83611065565b9190505550806006600060016005546107f59190610fe3565b815260208082019290925260400160002082518051919261081b92849290910190610c19565b50602082015160018201805460408086015163ffffffff9081166401000000000267ffffffffffffffff199093169416939093171790556060909201516002909101555161086a908690610ed1565b604051809103902060016005546108819190610fe3565b6040517fc5be1c7c64c2f607a4cc51a181ed53577cc986341d9f4c2cb1e70ad8c1f4f6ca90600090a360016005546108b99190610fe3565b95945050505050565b6006602052600090815260409020805481906108dd9061102a565b80601f01602080910402602001604051908101604052809291908181526020018280546109099061102a565b80156109565780601f1061092b57610100808354040283529160200191610956565b820191906000526020600020905b81548152906001019060200180831161093957829003601f168201915b505050506001830154600290930154919263ffffffff8082169364010000000090920416915084565b6000546001600160a01b031633146109a95760405162461bcd60e51b815260040161028190610f3d565b6109b36000610bc9565b565b6000546001600160a01b031633146109df5760405162461bcd60e51b815260040161028190610f3d565b600280546000838152600660205260409020909101546109ff9190610fa3565b4211610a4d5760405162461bcd60e51b815260206004820152601f60248201527f5468697320726f756e64206973206e6f742066696e69736865642079657421006044820152606401610281565b60008181526006602052604090206001015463ffffffff8082166401000000009092041610610aca5760405162461bcd60e51b815260206004820152602360248201527f5468697320766f746174696f6e206973206f6e207468652066696e616c20726f6044820152621d5b9960ea1b6064820152608401610281565b60008181526006602052604090206001018054640100000000900463ffffffff16906004610af783611080565b825463ffffffff9182166101009390930a928302919092021990911617905550600090815260066020526040902042600290910155565b6000546001600160a01b03163314610b585760405162461bcd60e51b815260040161028190610f3d565b6001600160a01b038116610bbd5760405162461bcd60e51b815260206004820152602660248201527f4f776e61626c653a206e6577206f776e657220697320746865207a65726f206160448201526564647265737360d01b6064820152608401610281565b610bc681610bc9565b50565b600080546001600160a01b038381166001600160a01b0319831681178455604051919092169283917f8be0079c531659141344cd1fd0a4f28419497f9722a3daafe3b4186f6b6457e09190a35050565b828054610c259061102a565b90600052602060002090601f016020900481019282610c475760008555610c8d565b82601f10610c6057805160ff1916838001178555610c8d565b82800160010185558215610c8d579182015b82811115610c8d578251825591602001919060010190610c72565b50610c99929150610c9d565b5090565b5b80821115610c995760008155600101610c9e565b80356001600160a01b0381168114610cc957600080fd5b919050565b600082601f830112610cdf57600080fd5b8135602067ffffffffffffffff821115610cfb57610cfb6110d0565b8160051b610d0a828201610f72565b838152828101908684018388018501891015610d2557600080fd5b600093505b85841015610d4f57610d3b81610cb2565b835260019390930192918401918401610d2a565b50979650505050505050565b803563ffffffff81168114610cc957600080fd5b600060208284031215610d8157600080fd5b610d8a82610cb2565b9392505050565b600080600060608486031215610da657600080fd5b833567ffffffffffffffff80821115610dbe57600080fd5b818601915086601f830112610dd257600080fd5b8135602082821115610de657610de66110d0565b610df8601f8301601f19168201610f72565b8281528982848701011115610e0c57600080fd5b82828601838301376000928101820192909252909550860135915080821115610e3457600080fd5b50610e4186828701610cce565b925050610e5060408501610d5b565b90509250925092565b600060208284031215610e6b57600080fd5b5035919050565b60008060408385031215610e8557600080fd5b82359150610e9560208401610d5b565b90509250929050565b600080600060608486031215610eb357600080fd5b83359250610ec360208501610d5b565b9150610e5060408501610cb2565b60008251610ee3818460208701610ffa565b9190910192915050565b6080815260008551806080840152610f0c8160a0850160208a01610ffa565b63ffffffff9586166020840152939094166040820152606081019190915260a0601f909201601f1916010192915050565b6020808252818101527f4f776e61626c653a2063616c6c6572206973206e6f7420746865206f776e6572604082015260600190565b604051601f8201601f1916810167ffffffffffffffff81118282101715610f9b57610f9b6110d0565b604052919050565b60008219821115610fb657610fb66110a4565b500190565b600063ffffffff808316818516808303821115610fda57610fda6110a4565b01949350505050565b600082821015610ff557610ff56110a4565b500390565b60005b83811015611015578181015183820152602001610ffd565b83811115611024576000848401525b50505050565b600181811c9082168061103e57607f821691505b6020821081141561105f57634e487b7160e01b600052602260045260246000fd5b50919050565b6000600019821415611079576110796110a4565b5060010190565b600063ffffffff8083168181141561109a5761109a6110a4565b6001019392505050565b634e487b7160e01b600052601160045260246000fd5b634e487b7160e01b600052603260045260246000fd5b634e487b7160e01b600052604160045260246000fdfea26469706673582212207e800da029a029a31d0af74437f87dd217064b7a21c36ec8679f9e70eee53f1c64736f6c63430008070033",
  "linkReferences": {},
  "deployedLinkReferences": {}
}