{
  "_format": "hh-sol-artifact-1",
  "contractName": "Votations",
  "sourceName": "contracts/Votations.sol",
  "abi": [
    {
      "anonymous": false,
      "inputs": [
        {
          "indexed": true,
          "internalType": "uint256",
          "name": "votationId",
          "type": "uint256"
        },
        {
          "indexed": true,
          "internalType": "string",
          "name": "name",
          "type": "string"
        }
      ],
      "name": "CreateVotation",
      "type": "event"
    },
    {
      "anonymous": false,
      "inputs": [
        {
          "indexed": true,
          "internalType": "address",
          "name": "previousOwner",
          "type": "address"
        },
        {
          "indexed": true,
          "internalType": "address",
          "name": "newOwner",
          "type": "address"
        }
      ],
      "name": "OwnershipTransferred",
      "type": "event"
    },
    {
      "anonymous": false,
      "inputs": [
        {
          "indexed": true,
          "internalType": "uint256",
          "name": "votationId",
          "type": "uint256"
        },
        {
          "indexed": true,
          "internalType": "uint32",
          "name": "candidate",
          "type": "uint32"
        }
      ],
      "name": "Vote",
      "type": "event"
    },
    {
      "inputs": [
        {
          "internalType": "uint256",
          "name": "",
          "type": "uint256"
        },
        {
          "internalType": "uint32",
          "name": "",
          "type": "uint32"
        }
      ],
      "name": "candidates",
      "outputs": [
        {
          "internalType": "address",
          "name": "",
          "type": "address"
        }
      ],
      "stateMutability": "view",
      "type": "function"
    },
    {
      "inputs": [
        {
          "internalType": "string",
          "name": "_name",
          "type": "string"
        },
        {
          "internalType": "address[]",
          "name": "_candidates",
          "type": "address[]"
        },
        {
          "internalType": "uint32",
          "name": "_rounds",
          "type": "uint32"
        }
      ],
      "name": "createVotations",
      "outputs": [
        {
          "internalType": "uint256",
          "name": "",
          "type": "uint256"
        }
      ],
      "stateMutability": "nonpayable",
      "type": "function"
    },
    {
      "inputs": [
        {
          "internalType": "address",
          "name": "_user",
          "type": "address"
        }
      ],
      "name": "isRegisterUser",
      "outputs": [
        {
          "internalType": "bool",
          "name": "",
          "type": "bool"
        }
      ],
      "stateMutability": "view",
      "type": "function"
    },
    {
      "inputs": [
        {
          "internalType": "uint256",
          "name": "_votationId",
          "type": "uint256"
        },
        {
          "internalType": "uint32",
          "name": "_candidate",
          "type": "uint32"
        }
      ],
      "name": "makeVote",
      "outputs": [],
      "stateMutability": "nonpayable",
      "type": "function"
    },
    {
      "inputs": [],
      "name": "owner",
      "outputs": [
        {
          "internalType": "address",
          "name": "",
          "type": "address"
        }
      ],
      "stateMutability": "view",
      "type": "function"
    },
    {
      "inputs": [],
      "name": "register",
      "outputs": [],
      "stateMutability": "nonpayable",
      "type": "function"
    },
    {
      "inputs": [],
      "name": "renounceOwnership",
      "outputs": [],
      "stateMutability": "nonpayable",
      "type": "function"
    },
    {
      "inputs": [
        {
          "internalType": "address",
          "name": "newOwner",
          "type": "address"
        }
      ],
      "name": "transferOwnership",
      "outputs": [],
      "stateMutability": "nonpayable",
      "type": "function"
    },
    {
      "inputs": [
        {
          "internalType": "uint256",
          "name": "",
          "type": "uint256"
        }
      ],
      "name": "votations",
      "outputs": [
        {
          "internalType": "string",
          "name": "name",
          "type": "string"
        },
        {
          "internalType": "uint32",
          "name": "rounds",
          "type": "uint32"
        },
        {
          "internalType": "uint32",
          "name": "actualRounds",
          "type": "uint32"
        },
        {
          "internalType": "uint256",
          "name": "startTime",
          "type": "uint256"
        }
      ],
      "stateMutability": "view",
      "type": "function"
    },
    {
      "inputs": [
        {
          "internalType": "uint256",
          "name": "",
          "type": "uint256"
        },
        {
          "internalType": "address",
          "name": "",
          "type": "address"
        }
      ],
      "name": "votes",
      "outputs": [
        {
          "internalType": "uint32",
          "name": "",
          "type": "uint32"
        }
      ],
      "stateMutability": "view",
      "type": "function"
    }
  ],
  "bytecode": "0x608060405234801561001057600080fd5b5061001a3361001f565b61006f565b600080546001600160a01b038381166001600160a01b0319831681178455604051919092169283917f8be0079c531659141344cd1fd0a4f28419497f9722a3daafe3b4186f6b6457e09190a35050565b610e008061007e6000396000f3fe608060405234801561001057600080fd5b506004361061009e5760003560e01c8063715018a611610066578063715018a6146101455780637ccc7eab1461014d5780638da5cb5b14610199578063d23254b4146101aa578063f2fde38b146101f057600080fd5b80631aa3a008146100a357806339c4757b146100ad5780634e083d1f146100ee57806360a2c482146101015780636523cfc914610122575b600080fd5b6100ab610203565b005b6100d96100bb366004610a63565b6001600160a01b031660009081526001602052604090205460ff1690565b60405190151581526020015b60405180910390f35b6100ab6100fc366004610b92565b610285565b61011461010f366004610a85565b61054b565b6040519081526020016100e5565b610135610130366004610b4d565b61072f565b6040516100e59493929190610bd1565b6100ab6107ec565b61018161015b366004610b92565b60026020908152600092835260408084209091529082529020546001600160a01b031681565b6040516001600160a01b0390911681526020016100e5565b6000546001600160a01b0316610181565b6101db6101b8366004610b66565b600360209081526000928352604080842090915290825290205463ffffffff1681565b60405163ffffffff90911681526020016100e5565b6100ab6101fe366004610a63565b610822565b3360009081526001602081905260409091205460ff16151514156102665760405162461bcd60e51b81526020600482015260156024820152742ab9b2b91030b63932b0b23c903932b3b4b9ba32b960591b60448201526064015b60405180910390fd5b336000908152600160208190526040909120805460ff19169091179055565b3360009081526001602081905260409091205460ff161515146102e15760405162461bcd60e51b81526020600482015260146024820152732cb7ba9030b932903737ba103932b3b4b9ba32b960611b604482015260640161025d565b60008281526005602052604090206002015482906103029062093a80610c87565b42106103445760405162461bcd60e51b8152602060048201526011602482015270159bdd185d1a5bdb88199a5b9a5cda1959607a1b604482015260640161025d565b60008263ffffffff16116103965760405162461bcd60e51b815260206004820152601960248201527843616e64696461746520646f6573206e6f742065786973742160381b604482015260640161025d565b600083815260026020908152604080832063ffffffff861684529091529020546001600160a01b03166104075760405162461bcd60e51b815260206004820152601960248201527843616e64696461746520646f6573206e6f742065786973742160381b604482015260640161025d565b600083815260026020908152604080832063ffffffff861684529091529020546001600160a01b031633141561047f5760405162461bcd60e51b815260206004820152601f60248201527f596f752063616e206e6f7420766f746520666f7220796f757273656c76652100604482015260640161025d565b600083815260036020908152604080832033845290915290205463ffffffff16156104ec5760405162461bcd60e51b815260206004820152601760248201527f596f75206f6e6c792063616e20766f7465206f6e636521000000000000000000604482015260640161025d565b6000838152600360209081526040808320338452909152808220805463ffffffff191663ffffffff86169081179091559051909185917fb68c1f1c320402b2b401cc023c8972ae323e92832ac5c36b5f0bea6752d15fd49190a3505050565b600080546001600160a01b031633146105765760405162461bcd60e51b815260040161025d90610c21565b60408051608081018252600091810182905285815263ffffffff84166020820152426060820152905b84518163ffffffff16101561063857848163ffffffff16815181106105c6576105c6610d9e565b602002602001015160026000600454815260200190815260200160002060008360016105f29190610c9f565b63ffffffff168152602081019190915260400160002080546001600160a01b0319166001600160a01b03929092169190911790558061063081610d64565b91505061059f565b506004805490600061064983610d49565b9190505550806005600060016004546106629190610cc7565b81526020808201929092526040016000208251805191926106889284929091019061090d565b50602082015160018201805460408086015163ffffffff9081166401000000000267ffffffffffffffff19909316941693909317179055606090920151600290910155516106d7908690610bb5565b604051809103902060016004546106ee9190610cc7565b6040517fc5be1c7c64c2f607a4cc51a181ed53577cc986341d9f4c2cb1e70ad8c1f4f6ca90600090a360016004546107269190610cc7565b95945050505050565b60056020526000908152604090208054819061074a90610d0e565b80601f016020809104026020016040519081016040528092919081815260200182805461077690610d0e565b80156107c35780601f10610798576101008083540402835291602001916107c3565b820191906000526020600020905b8154815290600101906020018083116107a657829003601f168201915b505050506001830154600290930154919263ffffffff8082169364010000000090920416915084565b6000546001600160a01b031633146108165760405162461bcd60e51b815260040161025d90610c21565b61082060006108bd565b565b6000546001600160a01b0316331461084c5760405162461bcd60e51b815260040161025d90610c21565b6001600160a01b0381166108b15760405162461bcd60e51b815260206004820152602660248201527f4f776e61626c653a206e6577206f776e657220697320746865207a65726f206160448201526564647265737360d01b606482015260840161025d565b6108ba816108bd565b50565b600080546001600160a01b038381166001600160a01b0319831681178455604051919092169283917f8be0079c531659141344cd1fd0a4f28419497f9722a3daafe3b4186f6b6457e09190a35050565b82805461091990610d0e565b90600052602060002090601f01602090048101928261093b5760008555610981565b82601f1061095457805160ff1916838001178555610981565b82800160010185558215610981579182015b82811115610981578251825591602001919060010190610966565b5061098d929150610991565b5090565b5b8082111561098d5760008155600101610992565b80356001600160a01b03811681146109bd57600080fd5b919050565b600082601f8301126109d357600080fd5b8135602067ffffffffffffffff8211156109ef576109ef610db4565b8160051b6109fe828201610c56565b838152828101908684018388018501891015610a1957600080fd5b600093505b85841015610a4357610a2f816109a6565b835260019390930192918401918401610a1e565b50979650505050505050565b803563ffffffff811681146109bd57600080fd5b600060208284031215610a7557600080fd5b610a7e826109a6565b9392505050565b600080600060608486031215610a9a57600080fd5b833567ffffffffffffffff80821115610ab257600080fd5b818601915086601f830112610ac657600080fd5b8135602082821115610ada57610ada610db4565b610aec601f8301601f19168201610c56565b8281528982848701011115610b0057600080fd5b82828601838301376000928101820192909252909550860135915080821115610b2857600080fd5b50610b35868287016109c2565b925050610b4460408501610a4f565b90509250925092565b600060208284031215610b5f57600080fd5b5035919050565b60008060408385031215610b7957600080fd5b82359150610b89602084016109a6565b90509250929050565b60008060408385031215610ba557600080fd5b82359150610b8960208401610a4f565b60008251610bc7818460208701610cde565b9190910192915050565b6080815260008551806080840152610bf08160a0850160208a01610cde565b63ffffffff9586166020840152939094166040820152606081019190915260a0601f909201601f1916010192915050565b6020808252818101527f4f776e61626c653a2063616c6c6572206973206e6f7420746865206f776e6572604082015260600190565b604051601f8201601f1916810167ffffffffffffffff81118282101715610c7f57610c7f610db4565b604052919050565b60008219821115610c9a57610c9a610d88565b500190565b600063ffffffff808316818516808303821115610cbe57610cbe610d88565b01949350505050565b600082821015610cd957610cd9610d88565b500390565b60005b83811015610cf9578181015183820152602001610ce1565b83811115610d08576000848401525b50505050565b600181811c90821680610d2257607f821691505b60208210811415610d4357634e487b7160e01b600052602260045260246000fd5b50919050565b6000600019821415610d5d57610d5d610d88565b5060010190565b600063ffffffff80831681811415610d7e57610d7e610d88565b6001019392505050565b634e487b7160e01b600052601160045260246000fd5b634e487b7160e01b600052603260045260246000fd5b634e487b7160e01b600052604160045260246000fdfea26469706673582212205d956c52a09634074ec0d1ba2624419e81a7f7a1a480d3e90e3563e9eae5a24f64736f6c63430008070033",
  "linkReferences": {},
  "deployedLinkReferences": {}
}