{
  "_format": "hh-sol-artifact-1",
  "contractName": "Votations",
  "sourceName": "contracts/Votations.sol",
  "abi": [
    {
      "anonymous": false,
      "inputs": [
        {
          "indexed": true,
          "internalType": "uint256",
          "name": "votationId",
          "type": "uint256"
        },
        {
          "indexed": true,
          "internalType": "string",
          "name": "name",
          "type": "string"
        }
      ],
      "name": "CreateVotation",
      "type": "event"
    },
    {
      "anonymous": false,
      "inputs": [
        {
          "indexed": true,
          "internalType": "address",
          "name": "previousOwner",
          "type": "address"
        },
        {
          "indexed": true,
          "internalType": "address",
          "name": "newOwner",
          "type": "address"
        }
      ],
      "name": "OwnershipTransferred",
      "type": "event"
    },
    {
      "anonymous": false,
      "inputs": [
        {
          "indexed": true,
          "internalType": "uint256",
          "name": "votationId",
          "type": "uint256"
        },
        {
          "indexed": true,
          "internalType": "uint32",
          "name": "candidate",
          "type": "uint32"
        }
      ],
      "name": "Vote",
      "type": "event"
    },
    {
      "inputs": [
        {
          "internalType": "uint256",
          "name": "",
          "type": "uint256"
        },
        {
          "internalType": "uint32",
          "name": "",
          "type": "uint32"
        }
      ],
      "name": "candidates",
      "outputs": [
        {
          "internalType": "address",
          "name": "",
          "type": "address"
        }
      ],
      "stateMutability": "view",
      "type": "function"
    },
    {
      "inputs": [
        {
          "internalType": "string",
          "name": "_name",
          "type": "string"
        },
        {
          "internalType": "address[]",
          "name": "_candidates",
          "type": "address[]"
        },
        {
          "internalType": "uint32",
          "name": "_rounds",
          "type": "uint32"
        }
      ],
      "name": "createVotations",
      "outputs": [
        {
          "internalType": "uint256",
          "name": "",
          "type": "uint256"
        }
      ],
      "stateMutability": "nonpayable",
      "type": "function"
    },
    {
      "inputs": [
        {
          "internalType": "address",
          "name": "_user",
          "type": "address"
        }
      ],
      "name": "isRegisterUser",
      "outputs": [
        {
          "internalType": "bool",
          "name": "",
          "type": "bool"
        }
      ],
      "stateMutability": "view",
      "type": "function"
    },
    {
      "inputs": [
        {
          "internalType": "uint256",
          "name": "_votationId",
          "type": "uint256"
        },
        {
          "internalType": "uint32",
          "name": "_candidate",
          "type": "uint32"
        }
      ],
      "name": "makeVote",
      "outputs": [],
      "stateMutability": "nonpayable",
      "type": "function"
    },
    {
      "inputs": [],
      "name": "owner",
      "outputs": [
        {
          "internalType": "address",
          "name": "",
          "type": "address"
        }
      ],
      "stateMutability": "view",
      "type": "function"
    },
    {
      "inputs": [],
      "name": "register",
      "outputs": [],
      "stateMutability": "nonpayable",
      "type": "function"
    },
    {
      "inputs": [],
      "name": "renounceOwnership",
      "outputs": [],
      "stateMutability": "nonpayable",
      "type": "function"
    },
    {
      "inputs": [
        {
          "internalType": "address",
          "name": "newOwner",
          "type": "address"
        }
      ],
      "name": "transferOwnership",
      "outputs": [],
      "stateMutability": "nonpayable",
      "type": "function"
    },
    {
      "inputs": [
        {
          "internalType": "uint256",
          "name": "",
          "type": "uint256"
        }
      ],
      "name": "votations",
      "outputs": [
        {
          "internalType": "string",
          "name": "name",
          "type": "string"
        },
        {
          "internalType": "uint32",
          "name": "rounds",
          "type": "uint32"
        },
        {
          "internalType": "uint32",
          "name": "actualRounds",
          "type": "uint32"
        },
        {
          "internalType": "uint256",
          "name": "startTime",
          "type": "uint256"
        }
      ],
      "stateMutability": "view",
      "type": "function"
    },
    {
      "inputs": [
        {
          "internalType": "uint256",
          "name": "",
          "type": "uint256"
        },
        {
          "internalType": "address",
          "name": "",
          "type": "address"
        }
      ],
      "name": "votes",
      "outputs": [
        {
          "internalType": "uint32",
          "name": "",
          "type": "uint32"
        }
      ],
      "stateMutability": "view",
      "type": "function"
    }
  ],
  "bytecode": "0x608060405234801561001057600080fd5b5061001a3361001f565b61006f565b600080546001600160a01b038381166001600160a01b0319831681178455604051919092169283917f8be0079c531659141344cd1fd0a4f28419497f9722a3daafe3b4186f6b6457e09190a35050565b610dd58061007e6000396000f3fe608060405234801561001057600080fd5b506004361061009e5760003560e01c8063715018a611610066578063715018a6146101455780637ccc7eab1461014d5780638da5cb5b14610199578063d23254b4146101aa578063f2fde38b146101f057600080fd5b80631aa3a008146100a357806339c4757b146100ad5780634e083d1f146100ee57806360a2c482146101015780636523cfc914610122575b600080fd5b6100ab610203565b005b6100d96100bb366004610a38565b6001600160a01b031660009081526001602052604090205460ff1690565b60405190151581526020015b60405180910390f35b6100ab6100fc366004610b67565b610285565b61011461010f366004610a5a565b610520565b6040519081526020016100e5565b610135610130366004610b22565b610704565b6040516100e59493929190610ba6565b6100ab6107c1565b61018161015b366004610b67565b60026020908152600092835260408084209091529082529020546001600160a01b031681565b6040516001600160a01b0390911681526020016100e5565b6000546001600160a01b0316610181565b6101db6101b8366004610b3b565b600360209081526000928352604080842090915290825290205463ffffffff1681565b60405163ffffffff90911681526020016100e5565b6100ab6101fe366004610a38565b6107f7565b3360009081526001602081905260409091205460ff16151514156102665760405162461bcd60e51b81526020600482015260156024820152742ab9b2b91030b63932b0b23c903932b3b4b9ba32b960591b60448201526064015b60405180910390fd5b336000908152600160208190526040909120805460ff19169091179055565b3360009081526001602081905260409091205460ff161515146102e15760405162461bcd60e51b81526020600482015260146024820152732cb7ba9030b932903737ba103932b3b4b9ba32b960611b604482015260640161025d565b60008281526005602052604090206002015482906103029062093a80610c5c565b42106103445760405162461bcd60e51b8152602060048201526011602482015270159bdd185d1a5bdb88199a5b9a5cda1959607a1b604482015260640161025d565b60008263ffffffff16116103965760405162461bcd60e51b815260206004820152601960248201527843616e64696461746520646f6573206e6f742065786973742160381b604482015260640161025d565b600083815260026020908152604080832063ffffffff861684529091529020546001600160a01b03166104075760405162461bcd60e51b815260206004820152601960248201527843616e64696461746520646f6573206e6f742065786973742160381b604482015260640161025d565b600083815260026020908152604080832063ffffffff861684529091529020546001600160a01b031633141561047f5760405162461bcd60e51b815260206004820152601f60248201527f596f752063616e206e6f7420766f746520666f7220796f757273656c76652100604482015260640161025d565b600083815260036020908152604080832033845290915290205463ffffffff16156104ec5760405162461bcd60e51b815260206004820152601760248201527f596f75206f6e6c792063616e20766f7465206f6e636521000000000000000000604482015260640161025d565b506000918252600360209081526040808420338552909152909120805463ffffffff191663ffffffff909216919091179055565b600080546001600160a01b0316331461054b5760405162461bcd60e51b815260040161025d90610bf6565b60408051608081018252600091810182905285815263ffffffff84166020820152426060820152905b84518163ffffffff16101561060d57848163ffffffff168151811061059b5761059b610d73565b602002602001015160026000600454815260200190815260200160002060008360016105c79190610c74565b63ffffffff168152602081019190915260400160002080546001600160a01b0319166001600160a01b03929092169190911790558061060581610d39565b915050610574565b506004805490600061061e83610d1e565b9190505550806005600060016004546106379190610c9c565b815260208082019290925260400160002082518051919261065d928492909101906108e2565b50602082015160018201805460408086015163ffffffff9081166401000000000267ffffffffffffffff19909316941693909317179055606090920151600290910155516106ac908690610b8a565b604051809103902060016004546106c39190610c9c565b6040517fc5be1c7c64c2f607a4cc51a181ed53577cc986341d9f4c2cb1e70ad8c1f4f6ca90600090a360016004546106fb9190610c9c565b95945050505050565b60056020526000908152604090208054819061071f90610ce3565b80601f016020809104026020016040519081016040528092919081815260200182805461074b90610ce3565b80156107985780601f1061076d57610100808354040283529160200191610798565b820191906000526020600020905b81548152906001019060200180831161077b57829003601f168201915b505050506001830154600290930154919263ffffffff8082169364010000000090920416915084565b6000546001600160a01b031633146107eb5760405162461bcd60e51b815260040161025d90610bf6565b6107f56000610892565b565b6000546001600160a01b031633146108215760405162461bcd60e51b815260040161025d90610bf6565b6001600160a01b0381166108865760405162461bcd60e51b815260206004820152602660248201527f4f776e61626c653a206e6577206f776e657220697320746865207a65726f206160448201526564647265737360d01b606482015260840161025d565b61088f81610892565b50565b600080546001600160a01b038381166001600160a01b0319831681178455604051919092169283917f8be0079c531659141344cd1fd0a4f28419497f9722a3daafe3b4186f6b6457e09190a35050565b8280546108ee90610ce3565b90600052602060002090601f0160209004810192826109105760008555610956565b82601f1061092957805160ff1916838001178555610956565b82800160010185558215610956579182015b8281111561095657825182559160200191906001019061093b565b50610962929150610966565b5090565b5b808211156109625760008155600101610967565b80356001600160a01b038116811461099257600080fd5b919050565b600082601f8301126109a857600080fd5b8135602067ffffffffffffffff8211156109c4576109c4610d89565b8160051b6109d3828201610c2b565b8381528281019086840183880185018910156109ee57600080fd5b600093505b85841015610a1857610a048161097b565b8352600193909301929184019184016109f3565b50979650505050505050565b803563ffffffff8116811461099257600080fd5b600060208284031215610a4a57600080fd5b610a538261097b565b9392505050565b600080600060608486031215610a6f57600080fd5b833567ffffffffffffffff80821115610a8757600080fd5b818601915086601f830112610a9b57600080fd5b8135602082821115610aaf57610aaf610d89565b610ac1601f8301601f19168201610c2b565b8281528982848701011115610ad557600080fd5b82828601838301376000928101820192909252909550860135915080821115610afd57600080fd5b50610b0a86828701610997565b925050610b1960408501610a24565b90509250925092565b600060208284031215610b3457600080fd5b5035919050565b60008060408385031215610b4e57600080fd5b82359150610b5e6020840161097b565b90509250929050565b60008060408385031215610b7a57600080fd5b82359150610b5e60208401610a24565b60008251610b9c818460208701610cb3565b9190910192915050565b6080815260008551806080840152610bc58160a0850160208a01610cb3565b63ffffffff9586166020840152939094166040820152606081019190915260a0601f909201601f1916010192915050565b6020808252818101527f4f776e61626c653a2063616c6c6572206973206e6f7420746865206f776e6572604082015260600190565b604051601f8201601f1916810167ffffffffffffffff81118282101715610c5457610c54610d89565b604052919050565b60008219821115610c6f57610c6f610d5d565b500190565b600063ffffffff808316818516808303821115610c9357610c93610d5d565b01949350505050565b600082821015610cae57610cae610d5d565b500390565b60005b83811015610cce578181015183820152602001610cb6565b83811115610cdd576000848401525b50505050565b600181811c90821680610cf757607f821691505b60208210811415610d1857634e487b7160e01b600052602260045260246000fd5b50919050565b6000600019821415610d3257610d32610d5d565b5060010190565b600063ffffffff80831681811415610d5357610d53610d5d565b6001019392505050565b634e487b7160e01b600052601160045260246000fd5b634e487b7160e01b600052603260045260246000fd5b634e487b7160e01b600052604160045260246000fdfea2646970667358221220a476b1d7cacaf93661f7032e1568866150d2eec2bebb7349a0e5dd0ae4e9467e64736f6c63430008070033",
  "linkReferences": {},
  "deployedLinkReferences": {}
}