{
  "_format": "hh-sol-artifact-1",
  "contractName": "Votations",
  "sourceName": "contracts/Votations.sol",
  "abi": [
    {
      "anonymous": false,
      "inputs": [
        {
          "indexed": true,
          "internalType": "uint256",
          "name": "votationId",
          "type": "uint256"
        },
        {
          "indexed": true,
          "internalType": "string",
          "name": "name",
          "type": "string"
        }
      ],
      "name": "CreateVotation",
      "type": "event"
    },
    {
      "anonymous": false,
      "inputs": [
        {
          "indexed": true,
          "internalType": "address",
          "name": "previousOwner",
          "type": "address"
        },
        {
          "indexed": true,
          "internalType": "address",
          "name": "newOwner",
          "type": "address"
        }
      ],
      "name": "OwnershipTransferred",
      "type": "event"
    },
    {
      "anonymous": false,
      "inputs": [
        {
          "indexed": true,
          "internalType": "address",
          "name": "user",
          "type": "address"
        }
      ],
      "name": "Register",
      "type": "event"
    },
    {
      "anonymous": false,
      "inputs": [
        {
          "indexed": true,
          "internalType": "uint256",
          "name": "votationId",
          "type": "uint256"
        },
        {
          "indexed": true,
          "internalType": "uint32",
          "name": "candidate",
          "type": "uint32"
        }
      ],
      "name": "Vote",
      "type": "event"
    },
    {
      "inputs": [
        {
          "internalType": "uint256",
          "name": "",
          "type": "uint256"
        },
        {
          "internalType": "uint32",
          "name": "",
          "type": "uint32"
        }
      ],
      "name": "candidates",
      "outputs": [
        {
          "internalType": "address",
          "name": "",
          "type": "address"
        }
      ],
      "stateMutability": "view",
      "type": "function"
    },
    {
      "inputs": [
        {
          "internalType": "string",
          "name": "_name",
          "type": "string"
        },
        {
          "internalType": "address[]",
          "name": "_candidates",
          "type": "address[]"
        }
      ],
      "name": "createVotations",
      "outputs": [
        {
          "internalType": "uint256",
          "name": "",
          "type": "uint256"
        }
      ],
      "stateMutability": "nonpayable",
      "type": "function"
    },
    {
      "inputs": [
        {
          "internalType": "address",
          "name": "_user",
          "type": "address"
        }
      ],
      "name": "isRegisterUser",
      "outputs": [
        {
          "internalType": "bool",
          "name": "",
          "type": "bool"
        }
      ],
      "stateMutability": "view",
      "type": "function"
    },
    {
      "inputs": [
        {
          "internalType": "uint256",
          "name": "_votationId",
          "type": "uint256"
        },
        {
          "internalType": "uint32",
          "name": "_candidate",
          "type": "uint32"
        }
      ],
      "name": "makeVote",
      "outputs": [],
      "stateMutability": "nonpayable",
      "type": "function"
    },
    {
      "inputs": [],
      "name": "owner",
      "outputs": [
        {
          "internalType": "address",
          "name": "",
          "type": "address"
        }
      ],
      "stateMutability": "view",
      "type": "function"
    },
    {
      "inputs": [],
      "name": "register",
      "outputs": [],
      "stateMutability": "nonpayable",
      "type": "function"
    },
    {
      "inputs": [],
      "name": "renounceOwnership",
      "outputs": [],
      "stateMutability": "nonpayable",
      "type": "function"
    },
    {
      "inputs": [
        {
          "internalType": "address",
          "name": "newOwner",
          "type": "address"
        }
      ],
      "name": "transferOwnership",
      "outputs": [],
      "stateMutability": "nonpayable",
      "type": "function"
    },
    {
      "inputs": [
        {
          "internalType": "uint256",
          "name": "",
          "type": "uint256"
        }
      ],
      "name": "votations",
      "outputs": [
        {
          "internalType": "string",
          "name": "name",
          "type": "string"
        },
        {
          "internalType": "uint256",
          "name": "startTime",
          "type": "uint256"
        }
      ],
      "stateMutability": "view",
      "type": "function"
    },
    {
      "inputs": [
        {
          "internalType": "uint256",
          "name": "",
          "type": "uint256"
        },
        {
          "internalType": "address",
          "name": "",
          "type": "address"
        }
      ],
      "name": "votes",
      "outputs": [
        {
          "internalType": "uint32",
          "name": "",
          "type": "uint32"
        }
      ],
      "stateMutability": "view",
      "type": "function"
    }
  ],
  "bytecode": "0x608060405234801561001057600080fd5b5061001a3361001f565b61006f565b600080546001600160a01b038381166001600160a01b0319831681178455604051919092169283917f8be0079c531659141344cd1fd0a4f28419497f9722a3daafe3b4186f6b6457e09190a35050565b610df28061007e6000396000f3fe608060405234801561001057600080fd5b506004361061009e5760003560e01c806375aab0ea1161006657806375aab0ea1461012a5780637ccc7eab1461014b5780638da5cb5b14610197578063d23254b4146101a8578063f2fde38b146101ee57600080fd5b80631aa3a008146100a357806339c4757b146100ad5780634e083d1f146100ee5780636523cfc914610101578063715018a614610122575b600080fd5b6100ab610201565b005b6100d96100bb366004610a64565b6001600160a01b031660009081526001602052604090205460ff1690565b60405190151581526020015b60405180910390f35b6100ab6100fc366004610b83565b6102a9565b61011461010f366004610b3e565b61056f565b6040516100e5929190610bd8565b6100ab610613565b61013d610138366004610a86565b610649565b6040519081526020016100e5565b61017f610159366004610b83565b60026020908152600092835260408084209091529082529020546001600160a01b031681565b6040516001600160a01b0390911681526020016100e5565b6000546001600160a01b031661017f565b6101d96101b6366004610b57565b600360209081526000928352604080842090915290825290205463ffffffff1681565b60405163ffffffff90911681526020016100e5565b6100ab6101fc366004610a64565b610837565b3360009081526001602081905260409091205460ff16151514156102645760405162461bcd60e51b81526020600482015260156024820152742ab9b2b91030b63932b0b23c903932b3b4b9ba32b960591b60448201526064015b60405180910390fd5b336000818152600160208190526040808320805460ff1916909217909155517feeda149c76076b34d4b9d8896c2f7efc0d33d1c7b53ea3c5db490d64613f603a9190a2565b3360009081526001602081905260409091205460ff161515146103055760405162461bcd60e51b81526020600482015260146024820152732cb7ba9030b932903737ba103932b3b4b9ba32b960611b604482015260640161025b565b60008281526005602052604090206001015482906103269062093a80610c79565b42106103685760405162461bcd60e51b8152602060048201526011602482015270159bdd185d1a5bdb88199a5b9a5cda1959607a1b604482015260640161025b565b60008263ffffffff16116103ba5760405162461bcd60e51b815260206004820152601960248201527843616e64696461746520646f6573206e6f742065786973742160381b604482015260640161025b565b600083815260026020908152604080832063ffffffff861684529091529020546001600160a01b031661042b5760405162461bcd60e51b815260206004820152601960248201527843616e64696461746520646f6573206e6f742065786973742160381b604482015260640161025b565b600083815260026020908152604080832063ffffffff861684529091529020546001600160a01b03163314156104a35760405162461bcd60e51b815260206004820152601f60248201527f596f752063616e206e6f7420766f746520666f7220796f757273656c76652100604482015260640161025b565b600083815260036020908152604080832033845290915290205463ffffffff16156105105760405162461bcd60e51b815260206004820152601760248201527f596f75206f6e6c792063616e20766f7465206f6e636521000000000000000000604482015260640161025b565b6000838152600360209081526040808320338452909152808220805463ffffffff191663ffffffff86169081179091559051909185917fb68c1f1c320402b2b401cc023c8972ae323e92832ac5c36b5f0bea6752d15fd49190a3505050565b60056020526000908152604090208054819061058a90610d00565b80601f01602080910402602001604051908101604052809291908181526020018280546105b690610d00565b80156106035780601f106105d857610100808354040283529160200191610603565b820191906000526020600020905b8154815290600101906020018083116105e657829003601f168201915b5050505050908060010154905082565b6000546001600160a01b0316331461063d5760405162461bcd60e51b815260040161025b90610c13565b61064760006108d2565b565b600080546001600160a01b031633146106745760405162461bcd60e51b815260040161025b90610c13565b60068251106106c55760405162461bcd60e51b815260206004820152601d60248201527f4d617820352063616e646964617465732070657220766f746174696f6e000000604482015260640161025b565b6040805180820190915283815242602082015260005b83518163ffffffff16101561077457838163ffffffff168151811061070257610702610d90565b6020026020010151600260006004548152602001908152602001600020600083600161072e9190610c91565b63ffffffff168152602081019190915260400160002080546001600160a01b0319166001600160a01b03929092169190911790558061076c81610d56565b9150506106db565b506004805490600061078583610d3b565b91905055508060056000600160045461079e9190610cb9565b81526020808201929092526040016000208251805191926107c492849290910190610922565b5060208201518160010155905050836040516107e09190610bbc565b604051809103902060016004546107f79190610cb9565b6040517fc5be1c7c64c2f607a4cc51a181ed53577cc986341d9f4c2cb1e70ad8c1f4f6ca90600090a3600160045461082f9190610cb9565b949350505050565b6000546001600160a01b031633146108615760405162461bcd60e51b815260040161025b90610c13565b6001600160a01b0381166108c65760405162461bcd60e51b815260206004820152602660248201527f4f776e61626c653a206e6577206f776e657220697320746865207a65726f206160448201526564647265737360d01b606482015260840161025b565b6108cf816108d2565b50565b600080546001600160a01b038381166001600160a01b0319831681178455604051919092169283917f8be0079c531659141344cd1fd0a4f28419497f9722a3daafe3b4186f6b6457e09190a35050565b82805461092e90610d00565b90600052602060002090601f0160209004810192826109505760008555610996565b82601f1061096957805160ff1916838001178555610996565b82800160010185558215610996579182015b8281111561099657825182559160200191906001019061097b565b506109a29291506109a6565b5090565b5b808211156109a257600081556001016109a7565b80356001600160a01b03811681146109d257600080fd5b919050565b600082601f8301126109e857600080fd5b8135602067ffffffffffffffff821115610a0457610a04610da6565b8160051b610a13828201610c48565b838152828101908684018388018501891015610a2e57600080fd5b600093505b85841015610a5857610a44816109bb565b835260019390930192918401918401610a33565b50979650505050505050565b600060208284031215610a7657600080fd5b610a7f826109bb565b9392505050565b60008060408385031215610a9957600080fd5b823567ffffffffffffffff80821115610ab157600080fd5b818501915085601f830112610ac557600080fd5b8135602082821115610ad957610ad9610da6565b610aeb601f8301601f19168201610c48565b8281528882848701011115610aff57600080fd5b82828601838301376000928101820192909252909450850135915080821115610b2757600080fd5b50610b34858286016109d7565b9150509250929050565b600060208284031215610b5057600080fd5b5035919050565b60008060408385031215610b6a57600080fd5b82359150610b7a602084016109bb565b90509250929050565b60008060408385031215610b9657600080fd5b82359150602083013563ffffffff81168114610bb157600080fd5b809150509250929050565b60008251610bce818460208701610cd0565b9190910192915050565b6040815260008351806040840152610bf7816060850160208801610cd0565b602083019390935250601f91909101601f191601606001919050565b6020808252818101527f4f776e61626c653a2063616c6c6572206973206e6f7420746865206f776e6572604082015260600190565b604051601f8201601f1916810167ffffffffffffffff81118282101715610c7157610c71610da6565b604052919050565b60008219821115610c8c57610c8c610d7a565b500190565b600063ffffffff808316818516808303821115610cb057610cb0610d7a565b01949350505050565b600082821015610ccb57610ccb610d7a565b500390565b60005b83811015610ceb578181015183820152602001610cd3565b83811115610cfa576000848401525b50505050565b600181811c90821680610d1457607f821691505b60208210811415610d3557634e487b7160e01b600052602260045260246000fd5b50919050565b6000600019821415610d4f57610d4f610d7a565b5060010190565b600063ffffffff80831681811415610d7057610d70610d7a565b6001019392505050565b634e487b7160e01b600052601160045260246000fd5b634e487b7160e01b600052603260045260246000fd5b634e487b7160e01b600052604160045260246000fdfea2646970667358221220323ec3de09e8dc3891e0a4f3ab0857ac2ec320d0e0d85569e447d19ff781bb0a64736f6c63430008070033",
  "linkReferences": {},
  "deployedLinkReferences": {}
}