{
  "_format": "hh-sol-artifact-1",
  "contractName": "Votations",
  "sourceName": "contracts/Votations.sol",
  "abi": [
    {
      "anonymous": false,
      "inputs": [
        {
          "indexed": true,
          "internalType": "uint256",
          "name": "votationId",
          "type": "uint256"
        },
        {
          "indexed": true,
          "internalType": "string",
          "name": "name",
          "type": "string"
        }
      ],
      "name": "CreateVotation",
      "type": "event"
    },
    {
      "anonymous": false,
      "inputs": [
        {
          "indexed": true,
          "internalType": "address",
          "name": "previousOwner",
          "type": "address"
        },
        {
          "indexed": true,
          "internalType": "address",
          "name": "newOwner",
          "type": "address"
        }
      ],
      "name": "OwnershipTransferred",
      "type": "event"
    },
    {
      "anonymous": false,
      "inputs": [
        {
          "indexed": true,
          "internalType": "uint256",
          "name": "votationId",
          "type": "uint256"
        },
        {
          "indexed": true,
          "internalType": "uint32",
          "name": "candidate",
          "type": "uint32"
        }
      ],
      "name": "Vote",
      "type": "event"
    },
    {
      "inputs": [
        {
          "internalType": "uint256",
          "name": "",
          "type": "uint256"
        },
        {
          "internalType": "uint32",
          "name": "",
          "type": "uint32"
        }
      ],
      "name": "candidates",
      "outputs": [
        {
          "internalType": "address",
          "name": "",
          "type": "address"
        }
      ],
      "stateMutability": "view",
      "type": "function"
    },
    {
      "inputs": [
        {
          "internalType": "string",
          "name": "_name",
          "type": "string"
        },
        {
          "internalType": "address[]",
          "name": "_candidates",
          "type": "address[]"
        }
      ],
      "name": "createVotations",
      "outputs": [
        {
          "internalType": "uint256",
          "name": "",
          "type": "uint256"
        }
      ],
      "stateMutability": "nonpayable",
      "type": "function"
    },
    {
      "inputs": [
        {
          "internalType": "address",
          "name": "_user",
          "type": "address"
        }
      ],
      "name": "isRegisterUser",
      "outputs": [
        {
          "internalType": "bool",
          "name": "",
          "type": "bool"
        }
      ],
      "stateMutability": "view",
      "type": "function"
    },
    {
      "inputs": [
        {
          "internalType": "uint256",
          "name": "_votationId",
          "type": "uint256"
        },
        {
          "internalType": "uint32",
          "name": "_candidate",
          "type": "uint32"
        }
      ],
      "name": "makeVote",
      "outputs": [],
      "stateMutability": "nonpayable",
      "type": "function"
    },
    {
      "inputs": [],
      "name": "owner",
      "outputs": [
        {
          "internalType": "address",
          "name": "",
          "type": "address"
        }
      ],
      "stateMutability": "view",
      "type": "function"
    },
    {
      "inputs": [],
      "name": "register",
      "outputs": [],
      "stateMutability": "nonpayable",
      "type": "function"
    },
    {
      "inputs": [],
      "name": "renounceOwnership",
      "outputs": [],
      "stateMutability": "nonpayable",
      "type": "function"
    },
    {
      "inputs": [
        {
          "internalType": "address",
          "name": "newOwner",
          "type": "address"
        }
      ],
      "name": "transferOwnership",
      "outputs": [],
      "stateMutability": "nonpayable",
      "type": "function"
    },
    {
      "inputs": [
        {
          "internalType": "uint256",
          "name": "",
          "type": "uint256"
        }
      ],
      "name": "votations",
      "outputs": [
        {
          "internalType": "string",
          "name": "name",
          "type": "string"
        },
        {
          "internalType": "uint256",
          "name": "startTime",
          "type": "uint256"
        }
      ],
      "stateMutability": "view",
      "type": "function"
    },
    {
      "inputs": [
        {
          "internalType": "uint256",
          "name": "",
          "type": "uint256"
        },
        {
          "internalType": "address",
          "name": "",
          "type": "address"
        }
      ],
      "name": "votes",
      "outputs": [
        {
          "internalType": "uint32",
          "name": "",
          "type": "uint32"
        }
      ],
      "stateMutability": "view",
      "type": "function"
    }
  ],
  "bytecode": "0x608060405234801561001057600080fd5b5061001a3361001f565b61006f565b600080546001600160a01b038381166001600160a01b0319831681178455604051919092169283917f8be0079c531659141344cd1fd0a4f28419497f9722a3daafe3b4186f6b6457e09190a35050565b610d7b8061007e6000396000f3fe608060405234801561001057600080fd5b506004361061009e5760003560e01c806375aab0ea1161006657806375aab0ea1461012a5780637ccc7eab1461014b5780638da5cb5b14610197578063d23254b4146101a8578063f2fde38b146101ee57600080fd5b80631aa3a008146100a357806339c4757b146100ad5780634e083d1f146100ee5780636523cfc914610101578063715018a614610122575b600080fd5b6100ab610201565b005b6100d96100bb3660046109ed565b6001600160a01b031660009081526001602052604090205460ff1690565b60405190151581526020015b60405180910390f35b6100ab6100fc366004610b0c565b610283565b61011461010f366004610ac7565b610549565b6040516100e5929190610b61565b6100ab6105ed565b61013d610138366004610a0f565b610623565b6040519081526020016100e5565b61017f610159366004610b0c565b60026020908152600092835260408084209091529082529020546001600160a01b031681565b6040516001600160a01b0390911681526020016100e5565b6000546001600160a01b031661017f565b6101d96101b6366004610ae0565b600360209081526000928352604080842090915290825290205463ffffffff1681565b60405163ffffffff90911681526020016100e5565b6100ab6101fc3660046109ed565b6107c0565b3360009081526001602081905260409091205460ff16151514156102645760405162461bcd60e51b81526020600482015260156024820152742ab9b2b91030b63932b0b23c903932b3b4b9ba32b960591b60448201526064015b60405180910390fd5b336000908152600160208190526040909120805460ff19169091179055565b3360009081526001602081905260409091205460ff161515146102df5760405162461bcd60e51b81526020600482015260146024820152732cb7ba9030b932903737ba103932b3b4b9ba32b960611b604482015260640161025b565b60008281526005602052604090206001015482906103009062093a80610c02565b42106103425760405162461bcd60e51b8152602060048201526011602482015270159bdd185d1a5bdb88199a5b9a5cda1959607a1b604482015260640161025b565b60008263ffffffff16116103945760405162461bcd60e51b815260206004820152601960248201527843616e64696461746520646f6573206e6f742065786973742160381b604482015260640161025b565b600083815260026020908152604080832063ffffffff861684529091529020546001600160a01b03166104055760405162461bcd60e51b815260206004820152601960248201527843616e64696461746520646f6573206e6f742065786973742160381b604482015260640161025b565b600083815260026020908152604080832063ffffffff861684529091529020546001600160a01b031633141561047d5760405162461bcd60e51b815260206004820152601f60248201527f596f752063616e206e6f7420766f746520666f7220796f757273656c76652100604482015260640161025b565b600083815260036020908152604080832033845290915290205463ffffffff16156104ea5760405162461bcd60e51b815260206004820152601760248201527f596f75206f6e6c792063616e20766f7465206f6e636521000000000000000000604482015260640161025b565b6000838152600360209081526040808320338452909152808220805463ffffffff191663ffffffff86169081179091559051909185917fb68c1f1c320402b2b401cc023c8972ae323e92832ac5c36b5f0bea6752d15fd49190a3505050565b60056020526000908152604090208054819061056490610c89565b80601f016020809104026020016040519081016040528092919081815260200182805461059090610c89565b80156105dd5780601f106105b2576101008083540402835291602001916105dd565b820191906000526020600020905b8154815290600101906020018083116105c057829003601f168201915b5050505050908060010154905082565b6000546001600160a01b031633146106175760405162461bcd60e51b815260040161025b90610b9c565b610621600061085b565b565b600080546001600160a01b0316331461064e5760405162461bcd60e51b815260040161025b90610b9c565b6040805180820190915283815242602082015260005b83518163ffffffff1610156106fd57838163ffffffff168151811061068b5761068b610d19565b602002602001015160026000600454815260200190815260200160002060008360016106b79190610c1a565b63ffffffff168152602081019190915260400160002080546001600160a01b0319166001600160a01b0392909216919091179055806106f581610cdf565b915050610664565b506004805490600061070e83610cc4565b9190505550806005600060016004546107279190610c42565b815260208082019290925260400160002082518051919261074d928492909101906108ab565b5060208201518160010155905050836040516107699190610b45565b604051809103902060016004546107809190610c42565b6040517fc5be1c7c64c2f607a4cc51a181ed53577cc986341d9f4c2cb1e70ad8c1f4f6ca90600090a360016004546107b89190610c42565b949350505050565b6000546001600160a01b031633146107ea5760405162461bcd60e51b815260040161025b90610b9c565b6001600160a01b03811661084f5760405162461bcd60e51b815260206004820152602660248201527f4f776e61626c653a206e6577206f776e657220697320746865207a65726f206160448201526564647265737360d01b606482015260840161025b565b6108588161085b565b50565b600080546001600160a01b038381166001600160a01b0319831681178455604051919092169283917f8be0079c531659141344cd1fd0a4f28419497f9722a3daafe3b4186f6b6457e09190a35050565b8280546108b790610c89565b90600052602060002090601f0160209004810192826108d9576000855561091f565b82601f106108f257805160ff191683800117855561091f565b8280016001018555821561091f579182015b8281111561091f578251825591602001919060010190610904565b5061092b92915061092f565b5090565b5b8082111561092b5760008155600101610930565b80356001600160a01b038116811461095b57600080fd5b919050565b600082601f83011261097157600080fd5b8135602067ffffffffffffffff82111561098d5761098d610d2f565b8160051b61099c828201610bd1565b8381528281019086840183880185018910156109b757600080fd5b600093505b858410156109e1576109cd81610944565b8352600193909301929184019184016109bc565b50979650505050505050565b6000602082840312156109ff57600080fd5b610a0882610944565b9392505050565b60008060408385031215610a2257600080fd5b823567ffffffffffffffff80821115610a3a57600080fd5b818501915085601f830112610a4e57600080fd5b8135602082821115610a6257610a62610d2f565b610a74601f8301601f19168201610bd1565b8281528882848701011115610a8857600080fd5b82828601838301376000928101820192909252909450850135915080821115610ab057600080fd5b50610abd85828601610960565b9150509250929050565b600060208284031215610ad957600080fd5b5035919050565b60008060408385031215610af357600080fd5b82359150610b0360208401610944565b90509250929050565b60008060408385031215610b1f57600080fd5b82359150602083013563ffffffff81168114610b3a57600080fd5b809150509250929050565b60008251610b57818460208701610c59565b9190910192915050565b6040815260008351806040840152610b80816060850160208801610c59565b602083019390935250601f91909101601f191601606001919050565b6020808252818101527f4f776e61626c653a2063616c6c6572206973206e6f7420746865206f776e6572604082015260600190565b604051601f8201601f1916810167ffffffffffffffff81118282101715610bfa57610bfa610d2f565b604052919050565b60008219821115610c1557610c15610d03565b500190565b600063ffffffff808316818516808303821115610c3957610c39610d03565b01949350505050565b600082821015610c5457610c54610d03565b500390565b60005b83811015610c74578181015183820152602001610c5c565b83811115610c83576000848401525b50505050565b600181811c90821680610c9d57607f821691505b60208210811415610cbe57634e487b7160e01b600052602260045260246000fd5b50919050565b6000600019821415610cd857610cd8610d03565b5060010190565b600063ffffffff80831681811415610cf957610cf9610d03565b6001019392505050565b634e487b7160e01b600052601160045260246000fd5b634e487b7160e01b600052603260045260246000fd5b634e487b7160e01b600052604160045260246000fdfea264697066735822122053ce4874af28e3b6ffed0fb477f63b29db650197769586733dc4268b52026a9964736f6c63430008070033",
  "linkReferences": {},
  "deployedLinkReferences": {}
}