{
  "_format": "hh-sol-artifact-1",
  "contractName": "Votations",
  "sourceName": "contracts/Votations.sol",
  "abi": [
    {
      "inputs": [
        {
          "internalType": "address",
          "name": "_user",
          "type": "address"
        }
      ],
      "name": "isRegisterUser",
      "outputs": [
        {
          "internalType": "bool",
          "name": "",
          "type": "bool"
        }
      ],
      "stateMutability": "view",
      "type": "function"
    },
    {
      "inputs": [],
      "name": "register",
      "outputs": [],
      "stateMutability": "nonpayable",
      "type": "function"
    }
  ],
  "bytecode": "0x608060405234801561001057600080fd5b50610168806100206000396000f3fe608060405234801561001057600080fd5b50600436106100365760003560e01c80631aa3a0081461003b57806339c4757b14610045575b600080fd5b610043610085565b005b610071610053366004610102565b6001600160a01b031660009081526020819052604090205460ff1690565b604051901515815260200160405180910390f35b3360009081526020819052604090205460ff161515600114156100e65760405162461bcd60e51b81526020600482015260156024820152742ab9b2b91030b63932b0b23c903932b3b4b9ba32b960591b604482015260640160405180910390fd5b336000908152602081905260409020805460ff19166001179055565b60006020828403121561011457600080fd5b81356001600160a01b038116811461012b57600080fd5b939250505056fea264697066735822122080146d34fec562e2f85ad2eec9801d2a297c01121b6132c28f20f67ba342295964736f6c63430008070033",
  "linkReferences": {},
  "deployedLinkReferences": {}
}