{
  "_format": "hh-sol-artifact-1",
  "contractName": "Votations",
  "sourceName": "contracts/Votations.sol",
  "abi": [
    {
      "anonymous": false,
      "inputs": [
        {
          "indexed": true,
          "internalType": "uint256",
          "name": "votationId",
          "type": "uint256"
        },
        {
          "indexed": true,
          "internalType": "string",
          "name": "name",
          "type": "string"
        }
      ],
      "name": "CreateVotation",
      "type": "event"
    },
    {
      "anonymous": false,
      "inputs": [
        {
          "indexed": true,
          "internalType": "address",
          "name": "previousOwner",
          "type": "address"
        },
        {
          "indexed": true,
          "internalType": "address",
          "name": "newOwner",
          "type": "address"
        }
      ],
      "name": "OwnershipTransferred",
      "type": "event"
    },
    {
      "inputs": [
        {
          "internalType": "string",
          "name": "_name",
          "type": "string"
        },
        {
          "internalType": "address[]",
          "name": "_candidates",
          "type": "address[]"
        },
        {
          "internalType": "uint32",
          "name": "_rounds",
          "type": "uint32"
        }
      ],
      "name": "createVotations",
      "outputs": [
        {
          "internalType": "uint256",
          "name": "",
          "type": "uint256"
        }
      ],
      "stateMutability": "nonpayable",
      "type": "function"
    },
    {
      "inputs": [
        {
          "internalType": "address",
          "name": "_user",
          "type": "address"
        }
      ],
      "name": "isRegisterUser",
      "outputs": [
        {
          "internalType": "bool",
          "name": "",
          "type": "bool"
        }
      ],
      "stateMutability": "view",
      "type": "function"
    },
    {
      "inputs": [],
      "name": "owner",
      "outputs": [
        {
          "internalType": "address",
          "name": "",
          "type": "address"
        }
      ],
      "stateMutability": "view",
      "type": "function"
    },
    {
      "inputs": [],
      "name": "register",
      "outputs": [],
      "stateMutability": "nonpayable",
      "type": "function"
    },
    {
      "inputs": [],
      "name": "renounceOwnership",
      "outputs": [],
      "stateMutability": "nonpayable",
      "type": "function"
    },
    {
      "inputs": [
        {
          "internalType": "address",
          "name": "newOwner",
          "type": "address"
        }
      ],
      "name": "transferOwnership",
      "outputs": [],
      "stateMutability": "nonpayable",
      "type": "function"
    },
    {
      "inputs": [
        {
          "internalType": "uint256",
          "name": "",
          "type": "uint256"
        }
      ],
      "name": "votations",
      "outputs": [
        {
          "internalType": "string",
          "name": "name",
          "type": "string"
        },
        {
          "internalType": "uint32",
          "name": "rounds",
          "type": "uint32"
        },
        {
          "internalType": "uint32",
          "name": "actualRounds",
          "type": "uint32"
        }
      ],
      "stateMutability": "view",
      "type": "function"
    }
  ],
  "bytecode": "0x608060405234801561001057600080fd5b5061001a3361001f565b61006f565b600080546001600160a01b038381166001600160a01b0319831681178455604051919092169283917f8be0079c531659141344cd1fd0a4f28419497f9722a3daafe3b4186f6b6457e09190a35050565b6109bb8061007e6000396000f3fe608060405234801561001057600080fd5b506004361061007d5760003560e01c80636523cfc91161005b5780636523cfc9146100ee578063715018a6146101105780638da5cb5b14610118578063f2fde38b1461013357600080fd5b80631aa3a0081461008257806339c4757b1461008c57806360a2c482146100cd575b600080fd5b61008a610146565b005b6100b861009a3660046106b5565b6001600160a01b031660009081526001602052604090205460ff1690565b60405190151581526020015b60405180910390f35b6100e06100db3660046106d7565b6101c8565b6040519081526020016100c4565b6101016100fc36600461079f565b610388565b6040516100c4939291906107d4565b61008a61043e565b6000546040516001600160a01b0390911681526020016100c4565b61008a6101413660046106b5565b610474565b3360009081526001602081905260409091205460ff16151514156101a95760405162461bcd60e51b81526020600482015260156024820152742ab9b2b91030b63932b0b23c903932b3b4b9ba32b960591b60448201526064015b60405180910390fd5b336000908152600160208190526040909120805460ff19169091179055565b600080546001600160a01b031633146101f35760405162461bcd60e51b81526004016101a09061081c565b60408051606081018252600091810182905285815263ffffffff84166020820152905b84518163ffffffff16101561029957848163ffffffff168151811061023d5761023d610959565b602090810291909101810151600454600090815260028352604080822063ffffffff861683529093529190912080546001600160a01b0319166001600160a01b03909216919091179055806102918161091f565b915050610216565b50600480549060006102aa83610904565b9190505550806005600060016004546102c39190610882565b81526020808201929092526040016000208251805191926102e99284929091019061055f565b5060208201516001909101805460409384015163ffffffff9081166401000000000267ffffffffffffffff19909216931692909217919091179055516103309086906107b8565b604051809103902060016004546103479190610882565b6040517fc5be1c7c64c2f607a4cc51a181ed53577cc986341d9f4c2cb1e70ad8c1f4f6ca90600090a3600160045461037f9190610882565b95945050505050565b6005602052600090815260409020805481906103a3906108c9565b80601f01602080910402602001604051908101604052809291908181526020018280546103cf906108c9565b801561041c5780601f106103f15761010080835404028352916020019161041c565b820191906000526020600020905b8154815290600101906020018083116103ff57829003601f168201915b5050506001909301549192505063ffffffff8082169164010000000090041683565b6000546001600160a01b031633146104685760405162461bcd60e51b81526004016101a09061081c565b610472600061050f565b565b6000546001600160a01b0316331461049e5760405162461bcd60e51b81526004016101a09061081c565b6001600160a01b0381166105035760405162461bcd60e51b815260206004820152602660248201527f4f776e61626c653a206e6577206f776e657220697320746865207a65726f206160448201526564647265737360d01b60648201526084016101a0565b61050c8161050f565b50565b600080546001600160a01b038381166001600160a01b0319831681178455604051919092169283917f8be0079c531659141344cd1fd0a4f28419497f9722a3daafe3b4186f6b6457e09190a35050565b82805461056b906108c9565b90600052602060002090601f01602090048101928261058d57600085556105d3565b82601f106105a657805160ff19168380011785556105d3565b828001600101855582156105d3579182015b828111156105d35782518255916020019190600101906105b8565b506105df9291506105e3565b5090565b5b808211156105df57600081556001016105e4565b80356001600160a01b038116811461060f57600080fd5b919050565b600082601f83011261062557600080fd5b8135602067ffffffffffffffff8211156106415761064161096f565b8160051b610650828201610851565b83815282810190868401838801850189101561066b57600080fd5b600093505b8584101561069557610681816105f8565b835260019390930192918401918401610670565b50979650505050505050565b803563ffffffff8116811461060f57600080fd5b6000602082840312156106c757600080fd5b6106d0826105f8565b9392505050565b6000806000606084860312156106ec57600080fd5b833567ffffffffffffffff8082111561070457600080fd5b818601915086601f83011261071857600080fd5b813560208282111561072c5761072c61096f565b61073e601f8301601f19168201610851565b828152898284870101111561075257600080fd5b8282860183830137600092810182019290925290955086013591508082111561077a57600080fd5b5061078786828701610614565b925050610796604085016106a1565b90509250925092565b6000602082840312156107b157600080fd5b5035919050565b600082516107ca818460208701610899565b9190910192915050565b60608152600084518060608401526107f3816080850160208901610899565b63ffffffff94851660208401529290931660408201526080601f909201601f1916010192915050565b6020808252818101527f4f776e61626c653a2063616c6c6572206973206e6f7420746865206f776e6572604082015260600190565b604051601f8201601f1916810167ffffffffffffffff8111828210171561087a5761087a61096f565b604052919050565b60008282101561089457610894610943565b500390565b60005b838110156108b457818101518382015260200161089c565b838111156108c3576000848401525b50505050565b600181811c908216806108dd57607f821691505b602082108114156108fe57634e487b7160e01b600052602260045260246000fd5b50919050565b600060001982141561091857610918610943565b5060010190565b600063ffffffff8083168181141561093957610939610943565b6001019392505050565b634e487b7160e01b600052601160045260246000fd5b634e487b7160e01b600052603260045260246000fd5b634e487b7160e01b600052604160045260246000fdfea2646970667358221220e898ecc9b710847646d43840a6c1b31b305d63977356868e825ff3accfc0991564736f6c63430008070033",
  "linkReferences": {},
  "deployedLinkReferences": {}
}