{
  "_format": "hh-sol-artifact-1",
  "contractName": "Votations",
  "sourceName": "contracts/Votations.sol",
  "abi": [
    {
      "anonymous": false,
      "inputs": [
        {
          "indexed": true,
          "internalType": "uint256",
          "name": "votationId",
          "type": "uint256"
        },
        {
          "indexed": true,
          "internalType": "string",
          "name": "name",
          "type": "string"
        }
      ],
      "name": "CreateVotation",
      "type": "event"
    },
    {
      "anonymous": false,
      "inputs": [
        {
          "indexed": true,
          "internalType": "address",
          "name": "previousOwner",
          "type": "address"
        },
        {
          "indexed": true,
          "internalType": "address",
          "name": "newOwner",
          "type": "address"
        }
      ],
      "name": "OwnershipTransferred",
      "type": "event"
    },
    {
      "anonymous": false,
      "inputs": [
        {
          "indexed": true,
          "internalType": "address",
          "name": "user",
          "type": "address"
        }
      ],
      "name": "Register",
      "type": "event"
    },
    {
      "anonymous": false,
      "inputs": [
        {
          "indexed": true,
          "internalType": "uint256",
          "name": "votationId",
          "type": "uint256"
        },
        {
          "indexed": true,
          "internalType": "uint32",
          "name": "candidate",
          "type": "uint32"
        }
      ],
      "name": "Vote",
      "type": "event"
    },
    {
      "inputs": [
        {
          "internalType": "uint256",
          "name": "",
          "type": "uint256"
        },
        {
          "internalType": "uint32",
          "name": "",
          "type": "uint32"
        }
      ],
      "name": "candidates",
      "outputs": [
        {
          "internalType": "address",
          "name": "",
          "type": "address"
        }
      ],
      "stateMutability": "view",
      "type": "function"
    },
    {
      "inputs": [
        {
          "internalType": "string",
          "name": "_name",
          "type": "string"
        },
        {
          "internalType": "address[]",
          "name": "_candidates",
          "type": "address[]"
        },
        {
          "internalType": "uint32",
          "name": "_rounds",
          "type": "uint32"
        }
      ],
      "name": "createVotations",
      "outputs": [
        {
          "internalType": "uint256",
          "name": "",
          "type": "uint256"
        }
      ],
      "stateMutability": "nonpayable",
      "type": "function"
    },
    {
      "inputs": [
        {
          "internalType": "address",
          "name": "_user",
          "type": "address"
        }
      ],
      "name": "isRegisterUser",
      "outputs": [
        {
          "internalType": "bool",
          "name": "",
          "type": "bool"
        }
      ],
      "stateMutability": "view",
      "type": "function"
    },
    {
      "inputs": [
        {
          "internalType": "uint256",
          "name": "_votationId",
          "type": "uint256"
        },
        {
          "internalType": "uint32",
          "name": "_candidate",
          "type": "uint32"
        }
      ],
      "name": "makeVote",
      "outputs": [],
      "stateMutability": "nonpayable",
      "type": "function"
    },
    {
      "inputs": [],
      "name": "owner",
      "outputs": [
        {
          "internalType": "address",
          "name": "",
          "type": "address"
        }
      ],
      "stateMutability": "view",
      "type": "function"
    },
    {
      "inputs": [],
      "name": "register",
      "outputs": [],
      "stateMutability": "nonpayable",
      "type": "function"
    },
    {
      "inputs": [],
      "name": "renounceOwnership",
      "outputs": [],
      "stateMutability": "nonpayable",
      "type": "function"
    },
    {
      "inputs": [
        {
          "internalType": "address",
          "name": "newOwner",
          "type": "address"
        }
      ],
      "name": "transferOwnership",
      "outputs": [],
      "stateMutability": "nonpayable",
      "type": "function"
    },
    {
      "inputs": [
        {
          "internalType": "uint256",
          "name": "",
          "type": "uint256"
        }
      ],
      "name": "votations",
      "outputs": [
        {
          "internalType": "string",
          "name": "name",
          "type": "string"
        },
        {
          "internalType": "uint32",
          "name": "rounds",
          "type": "uint32"
        },
        {
          "internalType": "uint32",
          "name": "actualRound",
          "type": "uint32"
        },
        {
          "internalType": "uint256",
          "name": "startTime",
          "type": "uint256"
        }
      ],
      "stateMutability": "view",
      "type": "function"
    },
    {
      "inputs": [
        {
          "internalType": "uint256",
          "name": "",
          "type": "uint256"
        },
        {
          "internalType": "uint32",
          "name": "",
          "type": "uint32"
        },
        {
          "internalType": "address",
          "name": "",
          "type": "address"
        }
      ],
      "name": "votes",
      "outputs": [
        {
          "internalType": "uint32",
          "name": "",
          "type": "uint32"
        }
      ],
      "stateMutability": "view",
      "type": "function"
    }
  ],
  "bytecode": "0x608060405234801561001057600080fd5b5061001a3361001f565b61006f565b600080546001600160a01b038381166001600160a01b0319831681178455604051919092169283917f8be0079c531659141344cd1fd0a4f28419497f9722a3daafe3b4186f6b6457e09190a35050565b610f858061007e6000396000f3fe608060405234801561001057600080fd5b506004361061009e5760003560e01c80636dbec6a9116100665780636dbec6a914610145578063715018a6146101915780637ccc7eab146101995780638da5cb5b146101e5578063f2fde38b146101f657600080fd5b80631aa3a008146100a357806339c4757b146100ad5780634e083d1f146100ee57806360a2c482146101015780636523cfc914610122575b600080fd5b6100ab610209565b005b6100d96100bb366004610bd8565b6001600160a01b031660009081526001602052604090205460ff1690565b60405190151581526020015b60405180910390f35b6100ab6100fc366004610cdb565b6102b1565b61011461010f366004610bfa565b61066f565b6040519081526020016100e5565b610135610130366004610cc2565b6108a4565b6040516100e59493929190610d56565b61017c610153366004610d07565b600360209081526000938452604080852082529284528284209052825290205463ffffffff1681565b60405163ffffffff90911681526020016100e5565b6100ab610961565b6101cd6101a7366004610cdb565b60026020908152600092835260408084209091529082529020546001600160a01b031681565b6040516001600160a01b0390911681526020016100e5565b6000546001600160a01b03166101cd565b6100ab610204366004610bd8565b610997565b3360009081526001602081905260409091205460ff161515141561026c5760405162461bcd60e51b81526020600482015260156024820152742ab9b2b91030b63932b0b23c903932b3b4b9ba32b960591b60448201526064015b60405180910390fd5b336000818152600160208190526040808320805460ff1916909217909155517feeda149c76076b34d4b9d8896c2f7efc0d33d1c7b53ea3c5db490d64613f603a9190a2565b3360009081526001602081905260409091205460ff1615151461030d5760405162461bcd60e51b81526020600482015260146024820152732cb7ba9030b932903737ba103932b3b4b9ba32b960611b6044820152606401610263565b600082815260056020526040902060020154829061032e9062093a80610e0c565b42106103705760405162461bcd60e51b8152602060048201526011602482015270159bdd185d1a5bdb88199a5b9a5cda1959607a1b6044820152606401610263565b60008263ffffffff16116103c25760405162461bcd60e51b815260206004820152601960248201527843616e64696461746520646f6573206e6f742065786973742160381b6044820152606401610263565b600083815260026020908152604080832063ffffffff861684529091529020546001600160a01b03166104335760405162461bcd60e51b815260206004820152601960248201527843616e64696461746520646f6573206e6f742065786973742160381b6044820152606401610263565b600083815260026020908152604080832063ffffffff861684529091529020546001600160a01b03163314156104ab5760405162461bcd60e51b815260206004820152601f60248201527f596f752063616e206e6f7420766f746520666f7220796f757273656c766521006044820152606401610263565b6000838152600560205260408082208151608081019092528054829082906104d290610e93565b80601f01602080910402602001604051908101604052809291908181526020018280546104fe90610e93565b801561054b5780601f106105205761010080835404028352916020019161054b565b820191906000526020600020905b81548152906001019060200180831161052e57829003601f168201915b5050509183525050600182015463ffffffff808216602080850191909152640100000000909204811660408085019190915260029094015460609093019290925260008881526003825283812085850151841682528252838120338252909152919091205491925016156106015760405162461bcd60e51b815260206004820152601760248201527f596f75206f6e6c792063616e20766f7465206f6e6365210000000000000000006044820152606401610263565b60008481526003602090815260408083208482015163ffffffff9081168552908352818420338552909252808320805463ffffffff1916928716928317905551909186917fb68c1f1c320402b2b401cc023c8972ae323e92832ac5c36b5f0bea6752d15fd49190a350505050565b600080546001600160a01b0316331461069a5760405162461bcd60e51b815260040161026390610da6565b60068351106106eb5760405162461bcd60e51b815260206004820152601d60248201527f4d617820352063616e646964617465732070657220766f746174696f6e0000006044820152606401610263565b60408051608081018252600091810182905285815263ffffffff84166020820152426060820152905b84518163ffffffff1610156107ad57848163ffffffff168151811061073b5761073b610f23565b602002602001015160026000600454815260200190815260200160002060008360016107679190610e24565b63ffffffff168152602081019190915260400160002080546001600160a01b0319166001600160a01b0392909216919091179055806107a581610ee9565b915050610714565b50600480549060006107be83610ece565b9190505550806005600060016004546107d79190610e4c565b81526020808201929092526040016000208251805191926107fd92849290910190610a82565b50602082015160018201805460408086015163ffffffff9081166401000000000267ffffffffffffffff199093169416939093171790556060909201516002909101555161084c908690610d3a565b604051809103902060016004546108639190610e4c565b6040517fc5be1c7c64c2f607a4cc51a181ed53577cc986341d9f4c2cb1e70ad8c1f4f6ca90600090a3600160045461089b9190610e4c565b95945050505050565b6005602052600090815260409020805481906108bf90610e93565b80601f01602080910402602001604051908101604052809291908181526020018280546108eb90610e93565b80156109385780601f1061090d57610100808354040283529160200191610938565b820191906000526020600020905b81548152906001019060200180831161091b57829003601f168201915b505050506001830154600290930154919263ffffffff8082169364010000000090920416915084565b6000546001600160a01b0316331461098b5760405162461bcd60e51b815260040161026390610da6565b6109956000610a32565b565b6000546001600160a01b031633146109c15760405162461bcd60e51b815260040161026390610da6565b6001600160a01b038116610a265760405162461bcd60e51b815260206004820152602660248201527f4f776e61626c653a206e6577206f776e657220697320746865207a65726f206160448201526564647265737360d01b6064820152608401610263565b610a2f81610a32565b50565b600080546001600160a01b038381166001600160a01b0319831681178455604051919092169283917f8be0079c531659141344cd1fd0a4f28419497f9722a3daafe3b4186f6b6457e09190a35050565b828054610a8e90610e93565b90600052602060002090601f016020900481019282610ab05760008555610af6565b82601f10610ac957805160ff1916838001178555610af6565b82800160010185558215610af6579182015b82811115610af6578251825591602001919060010190610adb565b50610b02929150610b06565b5090565b5b80821115610b025760008155600101610b07565b80356001600160a01b0381168114610b3257600080fd5b919050565b600082601f830112610b4857600080fd5b8135602067ffffffffffffffff821115610b6457610b64610f39565b8160051b610b73828201610ddb565b838152828101908684018388018501891015610b8e57600080fd5b600093505b85841015610bb857610ba481610b1b565b835260019390930192918401918401610b93565b50979650505050505050565b803563ffffffff81168114610b3257600080fd5b600060208284031215610bea57600080fd5b610bf382610b1b565b9392505050565b600080600060608486031215610c0f57600080fd5b833567ffffffffffffffff80821115610c2757600080fd5b818601915086601f830112610c3b57600080fd5b8135602082821115610c4f57610c4f610f39565b610c61601f8301601f19168201610ddb565b8281528982848701011115610c7557600080fd5b82828601838301376000928101820192909252909550860135915080821115610c9d57600080fd5b50610caa86828701610b37565b925050610cb960408501610bc4565b90509250925092565b600060208284031215610cd457600080fd5b5035919050565b60008060408385031215610cee57600080fd5b82359150610cfe60208401610bc4565b90509250929050565b600080600060608486031215610d1c57600080fd5b83359250610d2c60208501610bc4565b9150610cb960408501610b1b565b60008251610d4c818460208701610e63565b9190910192915050565b6080815260008551806080840152610d758160a0850160208a01610e63565b63ffffffff9586166020840152939094166040820152606081019190915260a0601f909201601f1916010192915050565b6020808252818101527f4f776e61626c653a2063616c6c6572206973206e6f7420746865206f776e6572604082015260600190565b604051601f8201601f1916810167ffffffffffffffff81118282101715610e0457610e04610f39565b604052919050565b60008219821115610e1f57610e1f610f0d565b500190565b600063ffffffff808316818516808303821115610e4357610e43610f0d565b01949350505050565b600082821015610e5e57610e5e610f0d565b500390565b60005b83811015610e7e578181015183820152602001610e66565b83811115610e8d576000848401525b50505050565b600181811c90821680610ea757607f821691505b60208210811415610ec857634e487b7160e01b600052602260045260246000fd5b50919050565b6000600019821415610ee257610ee2610f0d565b5060010190565b600063ffffffff80831681811415610f0357610f03610f0d565b6001019392505050565b634e487b7160e01b600052601160045260246000fd5b634e487b7160e01b600052603260045260246000fd5b634e487b7160e01b600052604160045260246000fdfea26469706673582212208d7c73403ddc0426904f74b8c427f806d1cd3868e62ba82d65dec7a5cca3a36964736f6c63430008070033",
  "linkReferences": {},
  "deployedLinkReferences": {}
}