{
  "_format": "hh-sol-artifact-1",
  "contractName": "Votations",
  "sourceName": "contracts/Votations.sol",
  "abi": [
    {
      "anonymous": false,
      "inputs": [
        {
          "indexed": true,
          "internalType": "uint256",
          "name": "votationId",
          "type": "uint256"
        }
      ],
      "name": "VotationEvent",
      "type": "event"
    },
    {
      "inputs": [
        {
          "internalType": "address[]",
          "name": "_candidates",
          "type": "address[]"
        },
        {
          "internalType": "uint32",
          "name": "_rounds",
          "type": "uint32"
        }
      ],
      "name": "createVotations",
      "outputs": [
        {
          "internalType": "uint256",
          "name": "",
          "type": "uint256"
        }
      ],
      "stateMutability": "nonpayable",
      "type": "function"
    },
    {
      "inputs": [
        {
          "internalType": "uint256",
          "name": "_votationId",
          "type": "uint256"
        }
      ],
      "name": "getVotation",
      "outputs": [
        {
          "internalType": "uint32",
          "name": "",
          "type": "uint32"
        },
        {
          "internalType": "uint32",
          "name": "",
          "type": "uint32"
        }
      ],
      "stateMutability": "view",
      "type": "function"
    },
    {
      "inputs": [
        {
          "internalType": "address",
          "name": "_user",
          "type": "address"
        }
      ],
      "name": "isRegisterUser",
      "outputs": [
        {
          "internalType": "bool",
          "name": "",
          "type": "bool"
        }
      ],
      "stateMutability": "view",
      "type": "function"
    },
    {
      "inputs": [],
      "name": "register",
      "outputs": [],
      "stateMutability": "nonpayable",
      "type": "function"
    }
  ],
  "bytecode": "0x608060405234801561001057600080fd5b506105c8806100206000396000f3fe608060405234801561001057600080fd5b506004361061004c5760003560e01c80631aa3a0081461005157806339c4757b1461005b578063b86850bc1461009c578063e09648af146100bd575b600080fd5b6100596100ed565b005b6100876100693660046103e1565b6001600160a01b031660009081526020819052604090205460ff1690565b60405190151581526020015b60405180910390f35b6100af6100aa366004610403565b61016b565b604051908152602001610093565b6100d06100cb3660046104e1565b610321565b6040805163ffffffff938416815292909116602083015201610093565b3360009081526020819052604090205460ff1615156001141561014f5760405162461bcd60e51b81526020600482015260156024820152742ab9b2b91030b63932b0b23c903932b3b4b9ba32b960591b60448201526064015b60405180910390fd5b336000908152602081905260409020805460ff19166001179055565b3360009081526020819052604081205460ff1615156001146101c65760405162461bcd60e51b81526020600482015260146024820152732cb7ba9030b932903737ba103932b3b4b9ba32b960611b6044820152606401610146565b6040805180820190915260006020820181905263ffffffff841682525b84518163ffffffff16101561026657848163ffffffff168151811061020a5761020a610566565b602090810291909101810151600354600090815260018352604080822063ffffffff861683529093529190912080546001600160a01b0319166001600160a01b039092169190911790558061025e8161052c565b9150506101e3565b506003805490600061027783610511565b91905055508060046000600160035461029091906104fa565b815260208082019290925260400160002082518154939092015163ffffffff9081166401000000000267ffffffffffffffff199094169216919091179190911790556003546102e1906001906104fa565b6040517fdfa6994ab96c499b82738cc9db0ed00ddde6f43d65995e3887721f2f4a3fc1bc90600090a2600160035461031991906104fa565b949350505050565b60008082600354116103755760405162461bcd60e51b815260206004820152601760248201527f766f746174696f6e20646f6573206e6f742065786974730000000000000000006044820152606401610146565b505060009081526004602090815260409182902082518084019093525463ffffffff808216808552640100000000909204169290910182905291565b80356001600160a01b03811681146103c857600080fd5b919050565b803563ffffffff811681146103c857600080fd5b6000602082840312156103f357600080fd5b6103fc826103b1565b9392505050565b6000806040838503121561041657600080fd5b823567ffffffffffffffff8082111561042e57600080fd5b818501915085601f83011261044257600080fd5b81356020828211156104565761045661057c565b8160051b604051601f19603f8301168101818110868211171561047b5761047b61057c565b604052838152828101945085830182870184018b101561049a57600080fd5b600096505b848710156104c4576104b0816103b1565b86526001969096019594830194830161049f565b5096506104d490508782016103cd565b9450505050509250929050565b6000602082840312156104f357600080fd5b5035919050565b60008282101561050c5761050c610550565b500390565b600060001982141561052557610525610550565b5060010190565b600063ffffffff8083168181141561054657610546610550565b6001019392505050565b634e487b7160e01b600052601160045260246000fd5b634e487b7160e01b600052603260045260246000fd5b634e487b7160e01b600052604160045260246000fdfea26469706673582212203f50c36561a5eac6b11a9fc0a0acee817b7625fa527c78cd46b0e1d58c1ab06b64736f6c63430008070033",
  "linkReferences": {},
  "deployedLinkReferences": {}
}