{
  "_format": "hh-sol-artifact-1",
  "contractName": "Votations",
  "sourceName": "contracts/Votations.sol",
  "abi": [
    {
      "anonymous": false,
      "inputs": [
        {
          "indexed": true,
          "internalType": "address",
          "name": "previousOwner",
          "type": "address"
        },
        {
          "indexed": true,
          "internalType": "address",
          "name": "newOwner",
          "type": "address"
        }
      ],
      "name": "OwnershipTransferred",
      "type": "event"
    },
    {
      "anonymous": false,
      "inputs": [
        {
          "indexed": true,
          "internalType": "uint256",
          "name": "votationId",
          "type": "uint256"
        }
      ],
      "name": "VotationEvent",
      "type": "event"
    },
    {
      "inputs": [
        {
          "internalType": "address[]",
          "name": "_candidates",
          "type": "address[]"
        },
        {
          "internalType": "uint32",
          "name": "_rounds",
          "type": "uint32"
        }
      ],
      "name": "createVotations",
      "outputs": [
        {
          "internalType": "uint256",
          "name": "",
          "type": "uint256"
        }
      ],
      "stateMutability": "nonpayable",
      "type": "function"
    },
    {
      "inputs": [
        {
          "internalType": "address",
          "name": "_user",
          "type": "address"
        }
      ],
      "name": "isRegisterUser",
      "outputs": [
        {
          "internalType": "bool",
          "name": "",
          "type": "bool"
        }
      ],
      "stateMutability": "view",
      "type": "function"
    },
    {
      "inputs": [],
      "name": "owner",
      "outputs": [
        {
          "internalType": "address",
          "name": "",
          "type": "address"
        }
      ],
      "stateMutability": "view",
      "type": "function"
    },
    {
      "inputs": [],
      "name": "register",
      "outputs": [],
      "stateMutability": "nonpayable",
      "type": "function"
    },
    {
      "inputs": [],
      "name": "renounceOwnership",
      "outputs": [],
      "stateMutability": "nonpayable",
      "type": "function"
    },
    {
      "inputs": [
        {
          "internalType": "address",
          "name": "newOwner",
          "type": "address"
        }
      ],
      "name": "transferOwnership",
      "outputs": [],
      "stateMutability": "nonpayable",
      "type": "function"
    },
    {
      "inputs": [
        {
          "internalType": "uint256",
          "name": "",
          "type": "uint256"
        }
      ],
      "name": "votations",
      "outputs": [
        {
          "internalType": "uint32",
          "name": "rounds",
          "type": "uint32"
        },
        {
          "internalType": "uint32",
          "name": "actualRounds",
          "type": "uint32"
        }
      ],
      "stateMutability": "view",
      "type": "function"
    }
  ],
  "bytecode": "0x608060405234801561001057600080fd5b5061001a3361001f565b61006f565b600080546001600160a01b038381166001600160a01b0319831681178455604051919092169283917f8be0079c531659141344cd1fd0a4f28419497f9722a3daafe3b4186f6b6457e09190a35050565b6106e88061007e6000396000f3fe608060405234801561001057600080fd5b506004361061007d5760003560e01c8063715018a61161005b578063715018a61461011c5780638da5cb5b14610124578063b86850bc1461013f578063f2fde38b1461016057600080fd5b80631aa3a0081461008257806339c4757b1461008c5780636523cfc9146100cd575b600080fd5b61008a610173565b005b6100b861009a3660046104cc565b6001600160a01b031660009081526001602052604090205460ff1690565b60405190151581526020015b60405180910390f35b6100ff6100db3660046105cc565b60056020526000908152604090205463ffffffff8082169164010000000090041682565b6040805163ffffffff9384168152929091166020830152016100c4565b61008a6101f5565b6000546040516001600160a01b0390911681526020016100c4565b61015261014d3660046104ee565b61022b565b6040519081526020016100c4565b61008a61016e3660046104cc565b6103b1565b3360009081526001602081905260409091205460ff16151514156101d65760405162461bcd60e51b81526020600482015260156024820152742ab9b2b91030b63932b0b23c903932b3b4b9ba32b960591b60448201526064015b60405180910390fd5b336000908152600160208190526040909120805460ff19169091179055565b6000546001600160a01b0316331461021f5760405162461bcd60e51b81526004016101cd906105e5565b610229600061044c565b565b600080546001600160a01b031633146102565760405162461bcd60e51b81526004016101cd906105e5565b6040805180820190915260006020820181905263ffffffff841682525b84518163ffffffff1610156102f657848163ffffffff168151811061029a5761029a610686565b602090810291909101810151600454600090815260028352604080822063ffffffff861683529093529190912080546001600160a01b0319166001600160a01b03909216919091179055806102ee8161064c565b915050610273565b506004805490600061030783610631565b919050555080600560006001600454610320919061061a565b815260208082019290925260400160002082518154939092015163ffffffff9081166401000000000267ffffffffffffffff199094169216919091179190911790556004546103719060019061061a565b6040517fdfa6994ab96c499b82738cc9db0ed00ddde6f43d65995e3887721f2f4a3fc1bc90600090a260016004546103a9919061061a565b949350505050565b6000546001600160a01b031633146103db5760405162461bcd60e51b81526004016101cd906105e5565b6001600160a01b0381166104405760405162461bcd60e51b815260206004820152602660248201527f4f776e61626c653a206e6577206f776e657220697320746865207a65726f206160448201526564647265737360d01b60648201526084016101cd565b6104498161044c565b50565b600080546001600160a01b038381166001600160a01b0319831681178455604051919092169283917f8be0079c531659141344cd1fd0a4f28419497f9722a3daafe3b4186f6b6457e09190a35050565b80356001600160a01b03811681146104b357600080fd5b919050565b803563ffffffff811681146104b357600080fd5b6000602082840312156104de57600080fd5b6104e78261049c565b9392505050565b6000806040838503121561050157600080fd5b823567ffffffffffffffff8082111561051957600080fd5b818501915085601f83011261052d57600080fd5b81356020828211156105415761054161069c565b8160051b604051601f19603f830116810181811086821117156105665761056661069c565b604052838152828101945085830182870184018b101561058557600080fd5b600096505b848710156105af5761059b8161049c565b86526001969096019594830194830161058a565b5096506105bf90508782016104b8565b9450505050509250929050565b6000602082840312156105de57600080fd5b5035919050565b6020808252818101527f4f776e61626c653a2063616c6c6572206973206e6f7420746865206f776e6572604082015260600190565b60008282101561062c5761062c610670565b500390565b600060001982141561064557610645610670565b5060010190565b600063ffffffff8083168181141561066657610666610670565b6001019392505050565b634e487b7160e01b600052601160045260246000fd5b634e487b7160e01b600052603260045260246000fd5b634e487b7160e01b600052604160045260246000fdfea264697066735822122051afdd3c9fac051fe2d8fff6c59bb1bdcf02b9381347da8e75464301e5bbf73e64736f6c63430008070033",
  "linkReferences": {},
  "deployedLinkReferences": {}
}